S01700004850313243706C75735F54657374312E73726563DB
S214004000604E0020DDAA000087A900008DA90000F0
S21400401093A9000099A900009FA9000000000000D5
S214004020000000000000000000000000A5A900003D
S214004030ABA9000000000000B1A90000B7A900006D
S2140040403BAA000011A6000025A6000039A6000025
S2140040504DA6000061A6000075A6000089A6000017
S2140040609DA60000B1A60000C5A60000D9A60000C7
S214004070EDA6000001A7000015A7000029A7000074
S2140040803DA70000F9A90000D1AA000053AA00002D
S2140040904DAA0000C9A9000059AA00005FAA0000A6
S2140040A035AA000029A000003DA0000055A0000091
S2140040B06DA0000085A0000099A00000B1A000003F
S2140040C0C9A00000E1A00000F5A000000DA10000BE
S2140040D025A10000E7A90000EDA90000F59A000060
S2140040E0DBA90000D5A90000E1A90000CFA90000C7
S2140040F0D7AA000005AA00000BAA000011AA00001B
S21400410017AA00001DAA000023AA000029AA000082
S2140041102FAA000041AA000065AA00006BAA0000B2
S21400412071AA000077AA00007DAA000083AA0000FA
S21400413089AA000095AA0000ADAA00009BAA00006C
S214004140B3AA0000B9AA0000BFAA0000C5AA0000D2
S214004150CBAA00000D950000FFA90000C3A900002F
S214004160BDA900008FAA000047AA0000F3A900001E
S21400417081A90000A1AA0000A7AA000015A50000BA
S21400800010B5054C237833B9044B13B10448AFF3CD
S21400801000800123237010BDAC0400200000000087
S214008020801401000C4B43B10C480D4910B5AFF35A
S21400803000800C48036823B910BD0A48036833B9AA
S2140080407047094B002BF7D0BDE810401847064B89
S214008050002BF5D0184700BF000000008014010078
S214008060B0040020804100000000000080B483B00F
S21400807000AF03463A60FB800B46BB80FB881A03C2
S214008080BB8813435B0001330D4AD35C9BB21B02D3
S2140080909AB23B681A803B681A88FB881903BB882B
S2140080A00B435B000649CB5C9BB213439AB23B681A
S2140080B01A80012318460C37BD4680BC704700BFA7
S2140080C0F4B3000080B584B000AF0346FB80084BD5
S2140080D093F8B830FB8107F10C02F988FB89184643
S2140080E0044B9847BB8918461037BD4680BD00BF75
S2140080F0040500206D80000080B483B000AF00232C
S2140081007B601FE02B4A7B68134400221A70294AC2
S2140081107B6813440E3300221A70264A7B68134489
S2140081201C3300221A70234A7B6813442A33002229
S2140081301A70204A7B681344383300221A707B6812
S21400814001337B607B680D2BDCDD00237B6008E061
S214008150184A7B6813444F3300221A707B68013339
S2140081607B607B680D2BF3DD124B002283F84820E2
S214008170104B002283F849200E4B002283F84A2039
S2140081800C4B002283F8B8200A4B0022A3F860208C
S214008190084B002283F86E20064B012283F84C2001
S2140081A0044B012283F8762000BF0C37BD4680BC06
S2140081B0704700BF0405002080B483B000AFEFF323
S2140081C010837B607B68002B0CBF01230023DBB28F
S2140081D03B6072B6BFF35F8F044B00221A703B6899
S2140081E018460C37BD4680BC704700BF74000020A0
S2140081F080B483B000AF78607B68002B14BF012387
S2140082000023DBB218460C37BD4680BC7047000022
S21400821080B582B000AF78607868074B9847034611
S214008220002B05D0054B01221A70BFF35F8F62B694
S21400823000BF0837BD4680BDF181000074000020F5
S21400824080B582B000AF084B98477860074B084A65
S2140082509A61064B074A1A627868074B984700BF30
S2140082600837BD4680BD00BFB981000000080E403B
S214008270200000AA070201001182000080B582B02B
S21400828000AF084B98477860074B084A9A61064B40
S214008290074A1A627868074B984700BF0837BD46FA
S2140082A080BD00BFB981000000040F40200000AA76
S2140082B00DA105001182000080B582B000AF0A4B08
S2140082C098477860094B5B6A3B60084B084A9A619E
S2140082D0064A3B6843F0050353627868054B9847A7
S2140082E000BF0837BD4680BDB981000000040F40BE
S2140082F0240000AA1182000080B582B000AF0A4BAD
S21400830098477860094B9B6D3B60084B084A9A611A
S214008310064A3B6843F0010393657868054B984727
S21400832000BF0837BD4680BDB981000000040F407D
S214008330580000AA1182000080B582B000AF0A4B38
S21400834098477860094B1B6D3B60084B084A9A615A
S214008350064A3B6843F0010313657868054B984767
S21400836000BF0837BD4680BDB981000000080E403A
S214008370500000AA1182000080B582B000AF0D4BFD
S214008380984778600C4B9B6C3B603B6823F44073CB
S2140083903B60094B094A9A61074A3B6843F40073FD
S2140083A043F0010393647868054B984700BF08378D
S2140083B0BD4680BDB981000000080E40480000AAF6
S2140083C01182000080B483B000AFEFF310837B60AF
S2140083D07B68002B0CBF01230023DBB23B6072B628
S2140083E0BFF35F8F044B00221A703B6818460C37A9
S2140083F0BD4680BC704700BF7400002080B483B0C8
S21400840000AF78607B68002B14BF01230023DBB22B
S21400841018460C37BD4680BC7047000080B582B059
S21400842000AF78607868074B98470346002B05D066
S214008430054B01221A70BFF35F8F62B600BF083784
S214008440BD4680BDFD8300007400002080B582B06C
S21400845000AF0346FB71FB79062B23D801A252F826
S21400846023F000BF81840000878400008D84000014
S21400847093840000998400009F840000A584000077
S2140084800B4B98470FE00B4B98470CE00A4B98476E
S21400849009E00A4B984706E0094B984703E0094B6A
S2140084A0984700E000BF00BF0837BD4680BD00BF4C
S2140084B0418200007D820000B982000039830000FE
S2140084C079830000F982000080B483B000AF0346D1
S2140084D0FB71FB79062B4FD801A252F823F000BFA0
S2140084E0FD84000011850000258500003985000008
S2140084F04D8500006185000075850000214B5B6995
S21400850003F00103002B14BF01230023DBB234E089
S2140085101D4B5B6903F00103002B14BF01230023EE
S214008520DBB22AE0184B5B6A03F00103002B14BF92
S21400853001230023DBB220E0124B1B6D03F0010386
S214008540002B14BF01230023DBB216E00D4B9B6CFF
S21400855003F00103002B14BF01230023DBB20CE061
S214008560094B9B6D03F00103002B14BF012300236E
S214008570DBB202E0012300E0002318460C37BD46BC
S21400858080BC704700080E4000040F4080B582B0E3
S21400859000AF0346FB7100BFFB791846054B9847B2
S2140085A0034683F00103DBB2002BF5D100BF08378A
S2140085B0BD4680BDC984000080B400AF024B18469B
S2140085C0BD4680BC704700BF001BB70080B500AF3B
S2140085D0024B98470346184680BD00BFB985000089
S2140085E080B582B000AF786079680120024B98476A
S2140085F000BF0837BD4680BDF586000080B582B056
S21400860000AF786079680120024B984700BF0837B2
S214008610BD4680BD5D87000080B582B000AF786043
S21400862079680420024B984700BF0837BD4680BDD6
S214008630F586000080B582B000AF786079680420C7
S214008640024B984700BF0837BD4680BD5D870000D7
S21400865080B582B000AF786079680520024B9847F5
S21400866000BF0837BD4680BDF586000080B582B0E5
S21400867000AF786079680520024B984700BF08373E
S214008680BD4680BD5D87000080B485B000AF7860D1
S214008690084B1B6CFB60FA687B681343FB60054B5A
S2140086A0054A9A65034AFB68136400BF1437BD4643
S2140086B080BC704700000E40400000AA80B485B021
S2140086C000AF7860094B1B6CFB607B68DB43FA6885
S2140086D01340FB60054B064A9A65044AFB68136420
S2140086E000BF1437BD4680BC704700BF00000E4078
S2140086F0400000AA80B584B000AF78603960134BA4
S2140087009847F8607B689A00114B13441B68BB605F
S21400871001223B6802FA03F3BA681343BB600D4AB2
S2140087207B6808339B0003F47F7343F02A4393650A
S2140087307B689A00064B1344BA681A60F868064BC2
S214008740984700BF1037BD4680BD00BFC5830000F8
S21400875020000E4000000E401D84000080B584B04E
S21400876000AF78603960134B9847F8607B689A00D2
S214008770114B13441B68BB6001223B6802FA03F3EB
S214008780DB43BA681340BB600C4A7B6808339B0027
S21400879003F47F7343F02A4393657B689A00064B85
S2140087A01344BA681A60F868054B984700BF10373C
S2140087B0BD4680BDC583000020000E4000000E4070
S2140087C01D84000080B584B000AF78600A4B9847DF
S2140087D0F8600A4B9B6A002B02D10520084B98478D
S2140087E0F868084B984779680220074B984700BFFF
S2140087F01037BD4680BD00BFC583000000000E4098
S214008800E18500001D840000F586000080B584B078
S21400881000AF786079680220094B9847094B984763
S214008820F860094B9B6A002B02D10520074B98473E
S214008830F868074B984700BF1037BD4680BD00BF9D
S2140088405D870000C583000000000E40FD85000027
S2140088501D84000080B584B000AF78600A4B98474E
S214008860F8600A4BDB6A002B02D10620084B9847BB
S214008870F868084B984779680320074B984700BF6D
S2140088801037BD4680BD00BFC583000000000E4007
S214008890E18500001D840000F586000080B584B0E8
S2140088A000AF786079680320094B9847094B9847D2
S2140088B0F860094BDB6A002B02D10620074B98476D
S2140088C0F868074B984700BF1037BD4680BD00BF0D
S2140088D05D870000C583000000000E40FD85000097
S2140088E01D84000080B582B000AF78607B68A94A1E
S2140088F0934200F04681A74A93426CD8A64A934218
S21400890000F00A81A44A934230D8A44A934200F069
S214008910EC80A24A934214D8A14A934200F0D38036
S2140089209F4A934204D8B3F1402F00F0C880E4E198
S2140089309C4A934200F0CB809B4A934200F0CE8044
S214008940DBE19A4A934200F0D880984A934204D8D2
S214008950974A934200F0CD80CFE1964A934200F0CA
S214008960D080954A934200F0D080C6E1934A934265
S21400897000F0EF80914A934214D8914A934200F057
S214008980D9808F4A934204D88E4A934200F0CB8017
S214008990B3E18D4A934200F0D4808C4A934200F0B3
S2140089A0D480AAE18A4A934200F0DF80884A934244
S2140089B008D8884A934200F0D080874A934200F055
S2140089C0D0809AE1854A934200F0D380844A93424D
S2140089D000F0D38091E1834A934200F06281814A9D
S2140089E0934233D8804A934200F03E817E4A9342B7
S2140089F014D87E4A934200F025817C4A934204D8DC
S214008A007B4A934200F0C18077E17A4A934200F0B5
S214008A101D81794A934200F020816EE1774A9342A5
S214008A2000F03481754A934208D8754A934200F0A4
S214008A301F81744A934200F022815EE1724A93429B
S214008A4000F02B81714A934235D056E1704A93422A
S214008A5000F03B816E4A934214D86E4A934200F06F
S214008A6028816C4A934204D86B4A934200F01D81D9
S214008A7043E16A4A934200F02081694A934200F03B
S214008A8020813AE1674A934200F02B81654A93427F
S214008A9008D8654A934200F01C81644A934200F06D
S214008AA01C812AE1624A934200F01F81614A934288
S214008AB000F01F8121E109205F4B98471DE100204F
S214008AC05E4B984719E101205C4B984715E1022060
S214008AD05A4B984755205A4B98470EE10320574B60
S214008AE098475520564B984707E10420534B984724
S214008AF003E10520514B9847FFE006204F4B98476F
S214008B00FBE007204D4B9847F7E008204B4B984773
S214008B1004204B4B9847F0E00920484B9847042028
S214008B20474B9847E9E00A20444B98470420444BBB
S214008B309847E2E00B20414B98470420404B98476B
S214008B40DBE00C203D4B9847D7E00D203B4B984789
S214008B50D3E00E20394B9847CFE00F20374B98478D
S214008B60CBE01020354B9847C7E01120334B984791
S214008B70C3E01220314B9847BFE013202F4B984795
S214008B80BBE015202D4B9847B7E016202B4B984797
S214008B90B3E000BF00800740008002400080014034
S214008BA000800040000001400040014000C001403D
S214008BB00084014000C40140004002400000044020
S214008BC00000034000C002400080034000C0034095
S214008BD000800640000006400040064000C00640F8
S214008BE00000074000000E4000100A400000084049
S214008BF000C0074000000A4000040A4000500A4037
S214008C0000200A4000400A4000600A4000000B4076
S214008C1000000F4000080E4000040E40000C0E40FE
S214008C2000100E40000C0F4000040F4000080F40DC
S214008C3000100F4000140F40E1850000C5870000BB
S214008C408986000017202E4B984756E001202D4BB2
S214008C50984700202C4B98474FE00220294B984716
S214008C600120294B984748E00220274B984744E0CC
S214008C700020244B98470320234B98473DE00420D0
S214008C80204B98470420204B984736E003201D4B86
S214008C90984705201C4B98472FE006201A4B98470C
S214008CA02BE00020194B984727E00120174B9847E8
S214008CB023E00220154B98471FE00320134B9847EC
S214008CC01BE00420114B984717E00020104B9847F4
S214008CD013E001200E4B98470FE002200C4B9847FC
S214008CE00BE003200A4B984707E00420084B984700
S214008CF003E00520064B984700BF0837BD4680BDF9
S214008D00C5870000E1850000558800001986000030
S214008D105186000080B582B000AF78607B68A74AB5
S214008D20934200F03481A54A93426CD8A44A9342F9
S214008D3000F00181A24A934230D8A24A934200F042
S214008D40E680A04A934214D89F4A934200F0D3800C
S214008D509D4A934204D8B3F1402F00F0C880D8E172
S214008D609A4A934200F0CB80994A934200F0CB8017
S214008D70CFE1984A934200F0D280964A934204D8B4
S214008D80954A934200F0C780C3E1944A934200F0AC
S214008D90CA80934A934200F0CA80BAE1914A93424D
S214008DA000F0DD808F4A934214D88F4A934200F039
S214008DB0CA808D4A934204D88C4A934200F0BF8002
S214008DC0A7E18B4A934200F0C2808A4A934200F0A1
S214008DD0C2809EE1884A934200F0CD80864A934244
S214008DE008D8864A934200F0BE80854A934200F037
S214008DF0BE808EE1834A934200F0C180824A93424D
S214008E0000F0C18085E1814A934200F04C817F4AA0
S214008E10934233D87E4A934200F028817C4A93429C
S214008E2014D87C4A934200F0BA807A4A934204D817
S214008E30794A934200F0AF806BE1784A934200F0A3
S214008E40B280774A934200F0B28062E1754A93425C
S214008E5000F01E81734A934208D8734A934200F08A
S214008E600981724A934200F00C8152E1704A9342A3
S214008E7000F015816F4A934235D04AE16E4A93421C
S214008E8000F025816C4A934214D86C4A934200F055
S214008E9012816A4A934204D8694A934200F00781D5
S214008EA037E1684A934200F00A81674A934200F02D
S214008EB00A812EE1654A934200F01581634A934287
S214008EC008D8634A934200F00681624A934200F053
S214008ED006811EE1604A934200F009815F4A934290
S214008EE000F0098115E109205D4B984707E1002055
S214008EF05C4B984703E101205A4B9847FFE002205D
S214008F00584B9847FBE00320564B9847F7E0042061
S214008F10544B9847F3E00520524B9847EFE0062065
S214008F20504B9847EBE007204E4B9847E7E0082069
S214008F304C4B9847E3E009204A4B9847DFE00A206D
S214008F40484B9847DBE00B20464B9847D7E00C2071
S214008F50444B9847D3E00D20424B9847CFE00E2075
S214008F60404B9847CBE00F203E4B9847C7E0102079
S214008F703C4B9847C3E011203A4B9847BFE012207D
S214008F80384B9847BBE01320364B9847B7E0152080
S214008F90344B9847B3E01620324B9847AFE0172083
S214008FA0304B9847ABE000202F4B9847A7E00220B5
S214008FB02B4B984701202C4B9847A0E00080074099
S214008FC00080024000800140008000400000014018
S214008FD00040014000C001400084014000C4014040
S214008FE000400240000004400000034000C0024071
S214008FF00080034000C0034000800640000006409A
S2140090000040064000C006400000074000000E403A
S21400901000100A400000084000C0074000000A4058
S21400902000040A4000500A4000200A4000400A405F
S21400903000600A4000000B4000000F4000080E4091
S21400904000040E40000C0E4000100E40000C0F40B6
S21400905000040F4000080F4000100F4000140F409F
S214009060FD8500000D8800009D88000002202A4B28
S214009070984744E00020294B98470320264B984702
S2140090803DE00420254B98470420234B984736E0C4
S2140090900320224B984705201F4B98472FE00620B9
S2140090A01D4B98472BE000201D4B984727E00120DA
S2140090B01B4B984723E00220194B98471FE00320DC
S2140090C0174B98471BE00420154B984717E00020E5
S2140090D0144B984713E00120124B98470FE00220EC
S2140090E0104B98470BE003200E4B984707E00420F0
S2140090F00C4B984703E005200A4B984700BF0A4BE5
S2140091009A6A40F60C731340002B02D17F20074B5F
S21400911098470837BD4680BD9D880000FD85000045
S214009120358600006D86000000000E40BD860000FB
S21400913080B584B000AF7860084B9847F860084B5D
S2140091404FF02A429A65064A7B681360F868054B1A
S214009150984700BF1037BD4680BD00BFC5830000DE
S21400916000000E401D84000080B586B000AF0023CE
S2140091707B610023FB742C482C4B98472A4B01221A
S2140091809A6000BF284BDB6803F00103002BF9D080
S214009190274B98470246274B9A420DD801237B61FE
S2140091A0234B98470246244B9A4207D92348244B20
S2140091B098470123FB7401E000237B610420214BC8
S2140091C098470420204B9847194B9847FB7C1A4633
S2140091D079691E4B984705201D4B9847174BBB6077
S2140091E07B697B6001233B603B68002B04D1796878
S2140091F0B868184B984704E0174A7968B868174B60
S214009200984700BF0D48164B9847034603F00103E6
S214009210002BF7D0134B9847F860F868124B984726
S21400922000BF1837BD4680BD00040A40E588000030
S214009230CD850000001BB70000127A0000000F402A
S214009240FD9C00004D8400008D850000BD9D000043
S21400925031910000A59C000080A90300019C00003D
S214009260759D0000C58300001D84000080B500AF1A
S2140092700248034B984700BF80BD00BF00100E4059
S214009280E588000080B48DB000AF786039607B68F8
S214009290FB623B68BB62FB6A7B627B6A5A09FB6ABD
S2140092A03B623B6A03F01F03012101FA03F3FA61F4
S2140092B0BB61BB6A7B61FB693B613B6903F50013DD
S2140092C003F5E1635B02FB607B6903F00803002B98
S2140092D003D0FB68BA695A6702E0FB68BA699A6706
S2140092E07B6903F01003002B04D0FB68BA69C3F84F
S2140092F0842003E0FB68BA69C3F888207B6903F022
S2140093004003002B04D0FB68BA69C3F8C42003E00E
S214009310FB68BA69C3F8C8207B6903F08003002B9A
S21400932004D0FB68BA69C3F8042103E0FB68BA6995
S214009330C3F808217B6903F00103002B03D0FB6808
S214009340BA695A6102E0FB68BA699A617B6903F000
S2140093500203002B03D0FB68BA695A6202E0FB687E
S214009360BA699A627B6903F00403002B03D0FB689A
S214009370BA695A6302E0FB68BA699A6300BF343779
S214009380BD4680BC704780B495B000AF78600B4691
S214009390FB707B68FB64FB7887F84B3097F84B30A4
S2140093A0012B2FD1FB6C7B647B6C3B643B6C5B09B5
S2140093B0FB63FB6B03F5001303F5E1635B021946E1
S2140093C0FB6CBB63BB6B03F01F03012202FA03F3C3
S2140093D04B64FB6C7B637B6B3B633B6B5B09FB62A9
S2140093E0FB6A03F5001303F5E1635B021946FB6CA9
S2140093F0BB62BB6A03F01F03012202FA03F3C1F843
S214009400683132E097F84B30002B2ED1FB6C7B6234
S2140094107B6A3B623B6A5B09FB61FB6903F50013F1
S21400942003F5E1635B021946FB6CBB61BB6903F0A5
S2140094301F03012202FA03F38B64FB6C7B617B69DA
S2140094403B613B695B09FB60FB6803F5001303F5B2
S214009450E1635B021946FB6CBB60BB6803F01F034D
S214009460012202FA03F3C1F8643100BF5437BD4647
S21400947080BC704780B588B000AF3B461846154B99
S21400948098473A4607F1140313491846134B984772
S21400949007F114031846124B9847124B98470023BF
S2140094A0FB610FE0FB69022B08D00021F8690E4B28
S2140094B098470821F8690D4B984700E000BFFB6904
S2140094C00133FB61FB695F2BECD900BF2037BD463B
S2140094D080BD00BFF9A70000000C0F403DA80000AB
S2140094E041A900006D92000087930000859200005D
S2140094F080B500AF044B1B68002B02D0024B1B68E4
S214009500984700BF80BD00BFCC3D002080B500AFAF
S214009510014B984700BF80BDF194000080B483B033
S21400952000AF0346FB7197F90730002B0BDB0849A9
S21400953097F907305B09FA7902F01F02012000FA5A
S21400954002F241F8232000BF0C37BD4680BC7047AE
S21400955000E100E080B483B000AF0346FB7197F9EA
S2140095600730002B0CDB094997F907305B09FA79BD
S21400957002F01F02012000FA02F2603341F82320B5
S21400958000BF0C37BD4680BC704700BF00E100E05E
S21400959080B483B000AF03463960FB7197F907309B
S2140095A0002B0ADB0D4997F907303A68D2B2120150
S2140095B0D2B20B4483F800230AE00949FB7903F092
S2140095C00F03043B3A68D2B21201D2B20B441A76A9
S2140095D000BF0C37BD4680BC704700BF00E100E00E
S2140095E000ED00E080B483B000AFEFF310837B6043
S2140095F07B68002B0CBF01230023DBB23B6072B6F6
S214009600BFF35F8F044B00221A703B6818460C3776
S214009610BD4680BC704700BF7400002080B483B095
S21400962000AF78607B68002B14BF01230023DBB2F9
S21400963018460C37BD4680BC7047000080B582B027
S21400964000AF78607868074B98470346002B05D034
S214009650054B01221A70BFF35F8F62B600BF083752
S214009660BD4680BD1D9600007400002080B483B007
S21400967000AF78607B689B6803F08053002B14BFB4
S21400968001230023DBB218460C37BD4680BC70476A
S21400969080B483B000AF78607B689B6803F080730B
S2140096A0002B14BF01230023DBB218460C37BD463F
S2140096B080BC704780B584B000AF0346FB71FB7971
S2140096C00A4AD35CFF2B00D1FEE7094B9847F860A7
S2140096D0FB79064AD25C0132D1B2044AD154F8680A
S2140096E0044B984700BF1037BD4680BDC43D0020E0
S2140096F0E59500003D96000080B582B000AF78602A
S2140097007868044B98470720034B984700BF0837F4
S214009710BD4680BDE5880000B596000080B584B0E3
S21400972000AF7860396042F21073FB6007E0FB68B8
S214009730013BFB60FB68002B01D1002379E07868D1
S2140097403E4B98470346002BF1D13B685B781B02E3
S2140097501A467B681A6442F21073FB6007E0FB68E7
S214009760013BFB60FB68002B01D1002361E07868B9
S214009770324B98470346002BF1D17B681B6C43F0B5
S21400978001027B681A6442F21073FB6007E0FB6814
S214009790013BFB60FB68002B01D1002349E07868A1
S2140097A0264B98470346002BF1D13B681B78012BCC
S2140097B006D13B689B781B0443F004027B681A6062
S2140097C03B681B78002B05D13B689B781B041A4628
S2140097D07B681A6000BF7868194B98470346002BD1
S2140097E0F9D13B681B78012B04D13B6899687868EF
S2140097F0144B98473B681B78002B05D13B685B6889
S21400980019467868104B984700BF78680C4B984705
S2140098100346002BF9D17B681B6843F001027B6886
S2140098201A6000BF7868064B98470346002BF9D1AC
S214009830012318461037BD4680BD00BF6D96000058
S214009840919600004D9800008598000080B582B083
S21400985000AF7860396000BF7868094B98470346C8
S214009860002BF9D13A687B685A6500BF7868044BCC
S21400987098470346002BF9D100BF0837BD4680BD88
S2140098809196000080B582B000AF7860396000BF66
S2140098907868094B98470346002BF9D17B683A68ED
S2140098A05A6000BF7868044B98470346002BF9D1EE
S2140098B000BF0837BD4680BD9196000080B582B0D7
S2140098C000AF7860396000BF7868094B9847034658
S2140098D0002BF9D17B683A681A6200BF7868044B9F
S2140098E098470346002BF9D100BF0837BD4680BD18
S2140098F09196000080B582B000AF78600B46FB7092
S21400990000BF78681C4B98470346002BF9D1FB78BC
S214009910042B25D801A252F823F000BF319900008D
S2140099203B990000459900004D99000057990000AA
S2140099307B684FF480721A6113E07B684FF48032C4
S2140099401A610EE07B6801221A610AE07B684FF01C
S21400995000721A6105E07B684FF000521A6100E061
S21400996000BF00BF7868044B98470346002BF9D128
S21400997000BF0837BD4680BD9196000080B582B016
S21400998000AF78600B46FB7000BF78681C4B9847AA
S2140099900346002BF9D1FB78042B25D801A252F8F8
S2140099A023F000BFB9990000C3990000CD990000CC
S2140099B0D5990000DF9900007B684FF480725A61E9
S2140099C013E07B684FF480325A610EE07B68012218
S2140099D05A610AE07B684FF000725A6105E07B68C6
S2140099E04FF000525A6100E000BF00BF7868044B99
S2140099F098470346002BF9D100BF0837BD4680BD07
S214009A009196000080B582B000AF78600B46FB7080
S214009A1000BF78681C4B98470346002BF9D1FB78AB
S214009A20042B25D801A252F823F000BF419A00006B
S214009A304B9A0000559A00005D9A0000679A000055
S214009A407B684FF48072DA6013E07B684FF48032F4
S214009A50DA600EE07B680122DA600AE07B684FF08D
S214009A600072DA6005E07B684FF00052DA6000E0D2
S214009A7000BF00BF7868044B98470346002BF9D117
S214009A8000BF0837BD4680BD9196000080B584B003
S214009A9000AFF8607A601A460B46FB721346BB723C
S214009AA0FB7A0F497A6841F8232097F90A3018465E
S214009AB00C4B984797F90A303A7E114618460A4BDF
S214009AC0984797F90A301846084B9847FB7A194684
S214009AD0F868074B984700BF1037BD4680BD00BFEB
S214009AE0D03D002055950000919500001D95000082
S214009AF0F598000080B500AF024B1B68984700BF82
S214009B0080BD00BFD03D002080B582B000AF786039
S214009B100B46FB7000BF7868164B98470346002B31
S214009B20F9D1FB78012B0BD0022B10D0002B00D0E4
S214009B3014E07B68DB6943F480727B68DA610DE0D1
S214009B407B68DB6943F480327B68DA6106E07B6819
S214009B50DB6943F001027B68DA6100BF00BF78680A
S214009B60044B98470346002BF9D100BF0837BD4683
S214009B7080BD00BF9196000080B483B000AFEFF3C5
S214009B8010837B607B68002B0CBF01230023DBB2B5
S214009B903B6072B6BFF35F8F044B00221A703B68BF
S214009BA018460C37BD4680BC704700BF74000020C6
S214009BB080B483B000AF78607B68002B14BF0123AD
S214009BC00023DBB218460C37BD4680BC7047000049
S214009BD080B582B000AF78607868074B9847034638
S214009BE0002B05D0054B01221A70BFF35F8F62B6BB
S214009BF000BF0837BD4680BDB19B00007400002042
S214009C0080B58AB000AFF860B9607A6000237B62E6
S214009C10FB68DB697B627B6A23F003037B62BB68BD
S214009C2003F003037A6A13437B627B6A43F00803FC
S214009C307B627B6A43F004037B62164B984738626C
S214009C40154B9B68FB61144B1B68BB61124B5B6832
S214009C507B61114A7B6853600F4B05221A60796A54
S214009C60F8680E4B98470346FB740B4B00221A60AD
S214009C70094A7B695360084AFB699360064ABB69D8
S214009C801360386A064B9847FB7C18462837BD4653
S214009C9080BD00BF799B000010E000E001000020BE
S214009CA0D19B000080B485B000AF78603960002397
S214009CB0FB607B68DB69FB60FB6823F00303FB60EB
S214009CC03B6803F00303FA681343FB60FB6843F04A
S214009CD00803FB60FB6843F00403FB60054B064A81
S214009CE09A617B68FA68DA6100BF1437BD4680BCAB
S214009CF0704700BF00000F401C0000AA80B485B06B
S214009D0000AF78607B68DB6943F08073FB60054BCF
S214009D10054A9A617B68FA68DA6100BF1437BD4667
S214009D2080BC704700000F401C0000AA80B485B0BD
S214009D3000AF786039607B68DB69FB603B68002BAE
S214009D4004D1FB6823F48033FB6003E0FB6843F434
S214009D508033FB60054B064A9A617B68FA68DA61D5
S214009D6000BF1437BD4680BC704700BF00000F40E0
S214009D701C0000AA80B483B000AF78607B685B6983
S214009D8018460C37BD4680BC7047000080B483B0D0
S214009D9000AF78600849084B1B6823F040027B68D8
S214009DA0002B01D0402300E0002313430B6000BFCC
S214009DB00C37BD4680BC704700000A4080B584B0B2
S214009DC000AFF860B9601346FB71BB68002B32D158
S214009DD0FB68234A934215D9FB68224A934208D867
S214009DE00120214B98474FF0FF3111201F4B984719
S214009DF031E001201C4B98474FF0FF3110201B4BE1
S214009E00984728E0FB79002B0CD0FB68184A934251
S214009E1008D80120144B98474FF0FF311120134B00
S214009E20984718E00020104B98474FF0FF3111205C
S214009E300E4B98470FE0FB680E4A934203D9012069
S214009E40094B984702E00020074B98474FF0FF3138
S214009E501120064B984700BF1037BD4680BD00BF97
S214009E6080A81201005125028D9D0000D59E00009D
S214009E70001BB70000127A0080B400AF064B9B6848
S214009E8003F00103002B14BF01230023DBB21846A6
S214009E90BD4680BC704700BF00000A4080B500AFDA
S214009EA000BF054B9847034683F00103DBB2002B47
S214009EB0F7D100BF80BD00BF799E000080B400AF20
S214009EC0034B9B6803F00C031846BD4680BC7047E6
S214009ED000000A4080B584B000AF78603960174B48
S214009EE01B689847164B5B68FB60FB6823F03F03D4
S214009EF0FB603B68002B0BDB3B681B0223F07F43B9
S214009F0023F0FF037A68134343F02543FB6005E024
S214009F107A68FB68134343F02543FB60084AFB68F6
S214009F205360084B98470246074B1A60034B1B6862
S214009F30984700BF1037BD4680BD00BF78000020A0
S214009F4000000A40BD9E0000C804002080B485B012
S214009F5000AF78607B68FB60FB685B0900BF184653
S214009F601437BD4680BC704780B485B000AF7860BB
S214009F707B68FB60FB6803F01F03012202FA03F311
S214009F8000BF18461437BD4680BC704780B586B003
S214009F9000AF786039607B685B0203F1804303F5AD
S214009FA061233B613B69D3F8D030FB6000237B61C3
S214009FB023E0194A7B6952F83330BB60B868174B08
S214009FC0984702467B689A4214D1B868144B984763
S214009FD00246FB681340002B0CD00F4A7B69DB005F
S214009FE013445B68002B05D00B4A7B69DB001344E7
S214009FF05B6898477B6901337B610A4B1B687A690B
S21400A0009A42D6D3FA683B681A403B69C3F8D82010
S21400A01000BF1837BD4680BDCC0400204D9F000011
S21400A020699F0000FC04002080B500AFFF210020DF
S21400A030014B984700BF80BD8D9F000080B500AFE4
S21400A0404FF47F410020024B984700BF80BD00BF01
S21400A0508D9F000080B500AF4FF47F010020024BBB
S21400A060984700BF80BD00BF8D9F000080B500AF41
S21400A0704FF07F410020024B984700BF80BD00BFD5
S21400A0808D9F000080B500AFFF210120014B98474F
S21400A09000BF80BD8D9F000080B500AF4FF47F41AC
S21400A0A00120024B984700BF80BD00BF8D9F000077
S21400A0B080B500AF4FF47F010120024B984700BFE8
S21400A0C080BD00BF8D9F000080B500AF4FF07F4180
S21400A0D00120024B984700BF80BD00BF8D9F000047
S21400A0E080B500AFFF210220014B984700BF80BD1E
S21400A0F08D9F000080B500AF4FF47F410220024BD9
S21400A100984700BF80BD00BF8D9F000080B500AFA0
S21400A1104FF47F010220024B984700BF80BD00BF6E
S21400A1208D9F000080B500AF4FF07F410220024BAC
S21400A130984700BF80BD00BF8D9F000080B483B0ED
S21400A14000AFEFF310837B607B68002B0CBF01230E
S21400A1500023DBB23B6072B6BFF35F8F044B002276
S21400A1601A703B6818460C37BD4680BC704700BF67
S21400A1707400002080B483B000AF78607B68002B4A
S21400A18014BF01230023DBB218460C37BD4680BC43
S21400A1907047000080B582B000AF78607868074BE3
S21400A1A098470346002B05D0054B01221A70BFF3D3
S21400A1B05F8F62B600BF0837BD4680BD75A1000040
S21400A1C07400002080B582B000AF0346FB71FB79B7
S21400A1D0062B23D801A252F823F000BFF9A10000F5
S21400A1E0FFA1000005A200000BA2000011A20000C3
S21400A1F017A200001DA200000B4B98470FE00B4B68
S21400A20098470CE00A4B984709E00A4B984706E047
S21400A210094B984703E0094B984700E000BF00BF92
S21400A2200837BD4680BD00BF418200007D82000029
S21400A230B98200003983000079830000F9820000AB
S21400A24080B483B000AF0346FB71FB79062B4FD872
S21400A25001A252F823F000BF75A2000089A20000F8
S21400A2609DA20000B1A20000C5A20000D9A2000075
S21400A270EDA20000214B5B6903F00103002B14BF25
S21400A28001230023DBB234E01D4B5B6903F00103BE
S21400A290002B14BF01230023DBB22AE0184B5B6AB5
S21400A2A003F00103002B14BF01230023DBB220E0E0
S21400A2B0124B1B6D03F00103002B14BF0123002378
S21400A2C0DBB216E00D4B9B6C03F00103002B14BFB2
S21400A2D001230023DBB20CE0094B9B6D03F0010366
S21400A2E0002B14BF01230023DBB202E0012300E0B1
S21400A2F0002318460C37BD4680BC704700080E4049
S21400A30000040F4080B582B000AF0346FB7100BF6B
S21400A310FB791846054B9847034683F00103DBB2EA
S21400A320002BF5D100BF0837BD4680BD41A2000016
S21400A33080B400AF034B01221A6100BFBD4680BC4B
S21400A340704700BF0000084080B584B000AF0346E9
S21400A350FB71FB790A4AD35CFF2B00D1FEE7094B61
S21400A3609847F860FB79064AD25C0132D1B2044ABB
S21400A370D154F868044B984700BF1037BD4680BDDF
S21400A380C43D00203DA1000095A1000080B500AFAF
S21400A3900B480C4B984702200B4B9847034683F01C
S21400A3A00103DBB2002B05D00220084B98470220A1
S21400A3B0074B984701210748074B984700BF80BDC9
S21400A3C000000840E588000041A20000C5A100008A
S21400A3D005A3000000000F402D9D000080B582B050
S21400A3E000AF7860224B55221A6021497B681B7AA1
S21400A3F01B0603F0F8527B68DB791B0403F4F813A2
S21400A4001A437B689B791B0203F4F8531A437B6854
S21400A4105B795B0003F00E0313437A6812791343EB
S21400A4208B6013497B681B781B0603F07C527B68A5
S21400A4305B78002B01D0012300E000231A437B68E1
S21400A4409B78002B01D0002300E002231A437B6890
S21400A450DB781B0203F4407313434B607B6893F96D
S21400A46009301846034B984700BF0837BD4680BDE5
S21400A47000000840B9A4000080B500AF06200C4BD1
S21400A48098470C4A0B4B5B6823F004035360094B58
S21400A49002221A60074B4FF480721A6000BF054B09
S21400A4A0DB6803F01003002BF9D000BF80BD00BFAF
S21400A4B049A300000000084080B487B000AF034600
S21400A4C0FB71134B5B683B611F23FB732023BB733D
S21400A4D03B6923F47C133B61FA79FB7B13405BB248
S21400A4E07B6197F90730002B04DA97F90E307A690A
S21400A4F013437B6106497B691B0403F47C123B69AA
S21400A50013434B6000BF1C37BD4680BC704700BF7E
S21400A5100000084080B500AF054B9847054B1B6808
S21400A520002B02D0034B1B68984700BF80BD00BFBE
S21400A53031A300000005002080B485B000AF0346BC
S21400A540FB71FB790F2B01D90023FB71FB799B0173
S21400A55003F1804303F52223FB60FB68184614379B
S21400A560BD4680BC7047000080B586B000AF03468D
S21400A570FB71FB791846154B984778617B69DB6958
S21400A5803B617B69DB6AFB603B6903F00103002BE0
S21400A59016D0FB6803F00403002B01D0042310E060
S21400A5A0FB6803F00203002B01D0032309E0FB68DD
S21400A5B003F00103002B01D0022302E0012300E098
S21400A5C0002318461837BD4680BD00BF39A50000D9
S21400A5D080B584B000AF0346FB71FB7918460A4B82
S21400A5E098470346FB73FB79084A52F82330002B42
S21400A5F006D0FB79054A52F82330FA7B1046984776
S21400A60000BF1037BD4680BD69A50000E43D0020B0
S21400A61080B500AF0020024B984700BF80BD00BF4A
S21400A620D1A5000080B500AF0120024B984700BFBF
S21400A63080BD00BFD1A5000080B500AF0220024B50
S21400A640984700BF80BD00BFD1A5000080B500AF11
S21400A6500320024B984700BF80BD00BFD1A5000075
S21400A66080B500AF0420024B984700BF80BD00BFF6
S21400A670D1A5000080B500AF0520024B984700BF6B
S21400A68080BD00BFD1A5000080B500AF0620024BFC
S21400A690984700BF80BD00BFD1A5000080B500AFC1
S21400A6A00720024B984700BF80BD00BFD1A5000021
S21400A6B080B500AF0820024B984700BF80BD00BFA2
S21400A6C0D1A5000080B500AF0920024B984700BF17
S21400A6D080BD00BFD1A5000080B500AF0A20024BA8
S21400A6E0984700BF80BD00BFD1A5000080B500AF71
S21400A6F00B20024B984700BF80BD00BFD1A50000CD
S21400A70080B500AF0C20024B984700BF80BD00BF4D
S21400A710D1A5000080B500AF0D20024B984700BFC2
S21400A72080BD00BFD1A5000080B500AF0E20024B53
S21400A730984700BF80BD00BFD1A5000080B500AF20
S21400A7400F20024B984700BF80BD00BFD1A5000078
S21400A75080B400AF024B1846BD4680BC704700BFB1
S21400A760001BB70080B500AF024B9847034618465B
S21400A77080BD00BF51A7000080B584B000AF7860F0
S21400A7801A4B1B6803F40033002B0ED1184B984766
S21400A790034603F560439C335B00013BDB08154A28
S21400A7A0A2FB03235B0AFB6008E0114B98470346B5
S21400A7B003F580435B00013BDB0BFB60FB68DB08BB
S21400A7C0FB6000BFFB685A1EFA60002BFAD1074AEE
S21400A7D07B6843F0AA431360044A7B6843F02A432D
S21400A7E0136000BF1037BD4680BD00BF000C0F4091
S21400A7F065A70000AB381E0980B483B000AF786050
S21400A8007B6800221A607B6800225A607B68002200
S21400A8109A607B6810221A737B6800225A737B68E2
S21400A82001229A737B680122DA737B6800221A740D
S21400A83000BF0C37BD4680BC7047000080B584B0B2
S21400A84000AFF860B9607A60FB68BA681A60FB68A7
S21400A8507A685A60B868374B9847BB681B6803F03D
S21400A8600803002B01D0002360E0BB681B6803F0E0
S21400A8700103002B0DD0BB681B6823F001031846AC
S21400A8802D4B984700BFBB681B6803F00103002BE5
S21400A890F9D1BB681B6803F48033002B0DD0BB686E
S21400A8A01B6823F480331846234B984700BFBB68C9
S21400A8B01B6803F48033002BF9D17B681A687B6829
S21400A8C05B681A437B689B681A437B681B7B1B028A
S21400A8D003F4F8531A437B685B7B9B0403F4F8038A
S21400A8E01A437B689B7B002B01D0802300E000236B
S21400A8F01A437B68DB7B002B01D0022300E0002399
S21400A900134318460C4B9847BB681B6843F48033C8
S21400A9101846094B984700BFBB681B6803F4803392
S21400A920002BF9D0B868054B984701231846103716
S21400A930BD4680BDE588000079A70000158D0000A3
S21400A94080B584B000AF78607B681B68FB60FB68EE
S21400A9501B6823F001031846074B984700BFFB68A7
S21400A9601B6803F00103002BF9D1F868034B9847E6
S21400A97000BF1037BD4680BD79A70000158D0000CA
S21400A98080B400AFFEE780B400AFFEE780B400AF4F
S21400A990FEE780B400AFFEE780B400AFFEE780B409
S21400A9A000AFFEE780B400AFFEE780B400AFFEE77E
S21400A9B080B400AFFEE780B400AFFEE780B400AF1F
S21400A9C0FEE780B400AFFEE780B400AFFEE780B4D9
S21400A9D000AFFEE780B400AFFEE780B400AFFEE74E
S21400A9E080B400AFFEE780B400AFFEE780B400AFEF
S21400A9F0FEE780B400AFFEE780B400AFFEE780B4A9
S21400AA0000AFFEE780B400AFFEE780B400AFFEE71D
S21400AA1080B400AFFEE780B400AFFEE780B400AFBE
S21400AA20FEE780B400AFFEE780B400AFFEE780B478
S21400AA3000AFFEE780B400AFFEE780B400AFFEE7ED
S21400AA4080B400AFFEE780B400AFFEE780B400AF8E
S21400AA50FEE780B400AFFEE780B400AFFEE780B448
S21400AA6000AFFEE780B400AFFEE780B400AFFEE7BD
S21400AA7080B400AFFEE780B400AFFEE780B400AF5E
S21400AA80FEE780B400AFFEE780B400AFFEE780B418
S21400AA9000AFFEE780B400AFFEE780B400AFFEE78D
S21400AAA080B400AFFEE780B400AFFEE780B400AF2E
S21400AAB0FEE780B400AFFEE780B400AFFEE780B4E8
S21400AAC000AFFEE780B400AFFEE780B400AFFEE75D
S21400AAD080B400AFFEE780B400AFFEE780B582B07A
S21400AAE000AF164B7B60164B3B607A683B689A4219
S21400AAF00CD007E03B681A1D3A607A68111D796031
S21400AB0012681A603B680F4A9342F3D30E4B3B60C1
S21400AB1004E03B681A1D3A6000221A603B680B4A44
S21400AB209342F6D30A4B7B600A4A7B6823F07F0386
S21400AB309360094B9847094B9847FEE7801401003D
S21400AB4000000020AC040020AC0400205C3E002086
S21400AB500080000000ED00E085B200002DB000008F
S21400AB6080B485B000AF03460A46FB711346BB713E
S21400AB70FB7903F00103002B00F095800023FB60B7
S21400AB80BB7903F00103002B0AD0FB79934AD35C10
S21400AB90013B012202FA03F31A46FB681343FB60EB
S21400ABA0BB7903F02003002B09D0FB798B4AD35CDA
S21400ABB01A46012393401A46FB681343FB60BB7991
S21400ABC003F00203002B0AD0FB79844AD35C0133DE
S21400ABD0012202FA03F31A46FB681343FB60804B1C
S21400ABE01A69FB6813437E4A13610023FB60BB7936
S21400ABF003F01003002B09D0FB79784AD35C1A4681
S21400AC00012393401A46FB681343FB60BB7903F0AD
S21400AC104003002B0AD0FB79704AD35C0133012233
S21400AC2002FA03F31A46FB681343FB606C4BDA68C0
S21400AC30FB6813436A4AD3600023FB60BB7903F0CA
S21400AC400403002B09D0FB79644AD35C1A4601231F
S21400AC5093401A46FB681343FB60BB7903F0080376
S21400AC60002B0AD0FB795D4AD35C013B012202FA35
S21400AC7003F31A46FB681343FB6097F90630002B74
S21400AC800ADAFB79554AD35C0133012202FA03F350
S21400AC901A46FB681343FB60514B9A68FB681343E4
S21400ACA04F4A936095E00023BB60BB7903F0200316
S21400ACB0002B09D0FB79494AD35C1A4601239340FE
S21400ACC01A46BB681343BB60BB7903F00103002B35
S21400ACD00AD0FB79414AD35C0133012202FA03F31E
S21400ACE01A46BB681343BB603D4B1A69BB681343E7
S21400ACF03B4A13610023BB60BB7903F00203002BC1
S21400AD000AD0FB79354AD35C0233012202FA03F3F8
S21400AD101A46BB681343BB60BB7903F01003002BD5
S21400AD2009D0FB792D4AD35C1A46012393401A4674
S21400AD30BB681343BB60BB7903F04003002B0AD00B
S21400AD40FB79264AD35C0133012202FA03F31A4642
S21400AD50BB681343BB60224BDA68BB681343204AC8
S21400AD60D3600023BB60BB7903F00403002B0AD03A
S21400AD70FB791A4AD35C0133012202FA03F31A461E
S21400AD80BB681343BB60BB7903F00803002B09D0F4
S21400AD90FB79124AD35C1A46012393401A46BB68D5
S21400ADA01343BB600E4B9A68BB6813430C4A936010
S21400ADB097F90630002B0CDA094B5B68FA790749DD
S21400ADC08A5C0232012101FA02F21343044A5360FC
S21400ADD000BF00BF1437BD4680BC7047F8E30000D4
S21400ADE0243E002080B400AF074B00225A60064B7A
S21400ADF000229A60044B0022DA60034B00221A619C
S21400AE0000BFBD4680BC7047243E002080B400AF23
S21400AE10094A0A4B5B685361074A084B9B68D36133
S21400AE20054A064BDB685362034A044B1B69D36230
S21400AE3000BFBD4680BC704700000840243E00208E
S21400AE4080B582B000AF0346FB71FB79062B23D892
S21400AE5001A252F823F000BF75AE00007BAE0000E2
S21400AE6081AE000087AE00008DAE000093AE0000FD
S21400AE7099AE00000B4B98470FE00B4B98470CE041
S21400AE800A4B984709E00A4B984706E0094B984753
S21400AE9003E0094B984700E000BF00BF0837BD46F7
S21400AEA080BD00BF418200007D820000B9820000A4
S21400AEB03983000079830000F982000080B500AF76
S21400AEC000210A480A4B984700210848094B984732
S21400AED000210648084B984732210448074B9847FC
S21400AEE000210248064B984700BF80BD00080F406F
S21400AEF07D990000059A000085980000BD98000026
S21400AF00F598000090B587B002AF01203A4B9847FD
S21400AF103A483B4B984700233B7101237B7104233F
S21400AF20BB710023BB603B1D19463448354B984720
S21400AF300346002B47D1344B9847344B93F82630C2
S21400AF4019460020324B9847304B93F8213019466B
S21400AF5001202F4B98472D4B93F829301946022095
S21400AF602B4B9847294B93F82C3019460320284B37
S21400AF709847264B5B7B19460420254B9847234B66
S21400AF8093F8213019460520214B98471F4B93F81C
S21400AF903330194606201E4B98471C4B93F8343026
S21400AFA0194607201A4B9847184B1B781946082055
S21400AFB0174B9847154B1B7819460920144B984792
S21400AFC0144B9847FEE700210C48134B9847002186
S21400AFD00A48124B9847012300932723104A002162
S21400AFE00648104CA047002104480F4B984700BF66
S21400AFF01437BD4690BD00BF41AE000000080F40AC
S21400B000F99600001D970000E5AD000004E400007E
S21400B01061AB00000DAE0000059A0000099B000021
S21400B020BDAE00008D9A00007D99000080B588B006
S21400B03000AF0023BB61804B9847804B9847804BFE
S21400B040984728233B7200237B720123BB720023A0
S21400B050FB7200233B7303237B731023BB73022313
S21400B060FB7306233B740A237B7407F10803184618
S21400B070744B9847744B9847744B98470021744814
S21400B080744B984732217248734B9847734B9847D6
S21400B090734B9847734B7822C3F85824714B782229
S21400B0A0C3F848246F4B0222C3F848226D4B022295
S21400B0B0C3F874226B4B0222C3F888226A4B984767
S21400B0C000237B600023FB820023FB61634B9847D1
S21400B0D0FB690133FB61FB695B080133634AD35CA0
S21400B0E09BB21B02BB82FB695B08604AD35C9AB2C8
S21400B0F0BB8A1343BB82BB8A03F00F035C4AD35C54
S21400B1001A465C4B9B5C63F07F03DBB21946032058
S21400B110594B9847BB8A1B099BB203F00F03544A4E
S21400B120D35C1A46534B9B5C19460220524B9847F9
S21400B130BB8A1B0A9BB203F00F034D4AD35C1A4628
S21400B1404C4B9B5C194601204B4B9847BB8A1B0B0C
S21400B1509BB203F00F03464AD35C1A46454B9B5CF2
S21400B16019460020444B9847444BB3F862301846C3
S21400B170434B9847034603F00F033D4AD35C1A46F9
S21400B1803C4B9B5C63F07F03DBB2194606203A4BD0
S21400B19098473A4BB3F862301846394B98470346FF
S21400B1A01B099BB203F00F03314AD35C1A46314B9E
S21400B1B09B5C19460520304B9847304BB3F86230FD
S21400B1C018462F4B984703461B0A9BB203F00F0303
S21400B1D0274AD35C1A46274B9B5C19460420264B0D
S21400B1E09847FB691B0A03F00F03214AD35C1A46F3
S21400B1F0204B9B5C194609201F4B9847FB691B0B8D
S21400B20003F00F031A4AD35C1A461A4B9B5C194686
S21400B2100820194B9847FB691B0C03F00F03144AD0
S21400B220D35C1A46134B9B5C19460720124B984773
S21400B2300B4B98474AE700BF6991000075940000E1
S21400B2408DA30000DDA3000079A4000005AF000078
S21400B25000080F4085980000BD980000E5AD00008E
S21400B2600DAE000000100E40F980000054E400000F
S21400B27044E4000004E4000061AB00000405002084
S21400B280C580000070B50F4E0F4D761BB61018BF68
S21400B290002405D0013455F8043B9847A642F9D15E
S21400B2A00A4E0B4D761B06F0D9F8B61018BF0024D0
S21400B2B006D0013455F8043B9847A642F9D170BD34
S21400B2C070BD00BF6814010068140100701401000E
S21400B2D068140100024B13B1024800F005B870472D
S21400B2E000000000F5B20000002301461A4618468A
S21400B2F000F01EB838B50A4C0A4D641BA4100AD0DC
S21400B30004F18043013B05EB8305013C55F8043905
S21400B3109847002CF9D1BDE8384006F0A9B800BF20
S21400B320801401007C140100704700BF704700BF06
S21400B3302DE9F8432C4D0646286898460F46914658
S21400B340FFF7F2FF294B1C68D4F84831002B3ED09B
S21400B3505A681F2A1CDC02F1010E76B103EB82014B
S21400B3600124C1F88890D3F8880194402043022E27
S21400B370C3F88801C1F8088123D00232C3F804E07C
S21400B380286843F82270FFF7D1FF0020BDE8F88355
S21400B390174B0BB34FF4C870AFF300800346D8B119
S21400B3A0D4F848210260002141600A46C4F84801EA
S21400B3B04FF0010EC0F88811C0F88C11002EDCD0BA
S21400B3C0CCE7D3F88C110C43C3F88C41D5E704F5D1
S21400B3D0A673C4F84831BBE72868FFF7A7FF4FF00D
S21400B3E0FF30BDE8F88300BFA80400205814010011
S21400B3F000000000CF014E0070023802EE02FF008F
S21400B40031020C00A1010C006E00040384019D01B2
S21400B41002000000080366014A01EE004C014D01DF
S21400B42046014B0124004E0020023C00060130017C
S21400B4301800E0036500000066036003E002FD01FB
S21400B44042001C00E0022003DB03B80106011600E0
S21400B4503801E00313039501F300ED00FD004E01F3
S21400B4600000C900200331020C00650000006603DE
S21400B47077018403A1010C00D90200000403040232
S21400B4804402840065000000300175009C026603DB
S21400B4905B0130011700660373003001120066037B
S21400B4A0E9015200300114006603530126026603C8
S21400B4B087018800D9020000050350008C00EF03C6
S21400B4C00B021400730081000000330160000000CE
S21400B4D00000000058017301F400EC00FE00D700E5
S21400B4E0A301CC00270310029C020201B80102024D
S21400B4F0A801930056017701E900EA006F01C9012F
S21400B5000E005501AE016D020C00310118001B0043
S21400B5100403040244028402040144016E0035025E
S21400B52008006E000C02CF0004038C030100230009
S21400B530840144031D021C008C036902440084003D
S21400B5405C030600D90142004E00200230035A0078
S21400B550BC017001E002E003E1000C009100320043
S21400B560C803CC03F70330010400C803CC0366020B
S21400B570EB03E00357014F01F700EB00FF00D30099
S21400B5800000CD008201D400730166016601D4007C
S21400B5907301D1000C009C006B01CC027D030700F8
S21400B5A05301CC02BD014F001402BF011403AF01CA
S21400B5B054019F00540213000C00410106000600CF
S21400B5C05C000400330166016601660166016601DF
S21400B5D0540107015400F700660166019402D70083
S21400B5E0660166019400B7006601660166016601A1
S21400B5F066016601CC023F0154034F0154008B00E4
S21400B60056032B0030011001C6014B016601E6030C
S21400B61083011C037D0142001C0362019C0343015D
S21400B620560327013001060054012F0094026B00D8
S21400B6304601A3009C0302031B0046017B001C037B
S21400B640620163009C011B004C004700E6031600E5
S21400B650B601DC03D402EB038603A6004400040014
S21400B66054002D010B00B9002200E6034800160026
S21400B67035012C00E10142008C03270088030100FD
S21400B6802200840345020200660166016601660127
S21400B690660166016601660166016601660166016D
S21400B6A0660166016601CC022F00D4002F005C0202
S21400B6B023001C0113009C02BD000C00B100060014
S21400B6C0D400DF021403370114022701CC023F0323
S21400B6D01B03CC021B039C02C301CC02790213009D
S21400B6E0F302CC02FF01D4003F008C0321001700B8
S21400B6F0540301005300E3026601CC027702D40033
S21400B700670266011C0353011C03620162016601A5
S21400B7106601300150004601C402ED030200140326
S21400B720C7031402B70354028703CC024D01070077
S21400B730F801BC0146003C00E801D40005031300F4
S21400B740BD0212005C016601D1000C00FD03020080
S21400B750CC02CF03D40097021C02D1000C00E103F8
S21400B7600200F1000C008C032F00B801FE0113004C
S21400B770FE0179020200B0005E007E020E01880023
S21400B780040005022400D9020000A90132001C02B0
S21400B790D001160196014E00B6007C019C00AA005E
S21400B7A05C035003D0025C02D003D0039002D002A8
S21400B7B02303E9032C005A00E6022F001C02D001E6
S21400B7C0D0035003F60056001C03220222029C03FC
S21400B7D0E6010601EE014601E60146014E00700252
S21400B7E0B8017C02C603C603A20222021B00300177
S21400B7F010005A001A006002C6015702A0027A0121
S21400B800DB03E6031C0250015A007A029C00160372
S21400B8100F011001D6011603D700D6011603CF007C
S21400B820DA03DA03E603660116031F006601D60193
S21400B8301C0076017602160313009000A600FC0298
S21400B840C6031C02D003D000BC01BB00900013004E
S21400B850D000A600F6021F007602DA037C036B0017
S21400B8601C01D003D003E6035C00D003EA03AA0061
S21400B8701C0122022B00D0031C01AA00E003620276
S21400B880A600DC025003BE00C30346038301840205
S21400B890A0024E003001040206030B01300107002F
S21400B8A060023A02A002C601E303460160023A02C1
S21400B8B03A029C0342031F0046017A021A00BA01AC
S21400B8C05A0246003C00EE03EE03B600A600E9036B
S21400B8D02C00E60223001C034A0223005C007D01C4
S21400B8E04200EA02270036025602CB038C001503FC
S21400B8F02300F5032C000C033F000C022F00B803B6
S21400B9005E00A8034E00A600E803C50032000C0245
S21400B9101F000C03AB00E9032C000601F8036603C6
S21400B9201F004600630060021C02E6025300160178
S21400B930D00116034B00B6003602DC02F002E0032C
S21400B9403001FC01DB0366021C025000BB03E90366
S21400B9502C000E013001F003E60166030302AE0080
S21400B96065020A00F5032C00060156007002380036
S21400B970B601B6016003CE03CE03E303AE00D801E2
S21400B980AE005E005A000E00E602EB009C0150027C
S21400B9906201D001BA00A0025A017602F303DC006D
S21400B9A0D001600226029C03A002DA016002620255
S21400B9B0E3031C0322023F00A0025C035000500079
S21400B9C090005A0160025C02AA01E0037602F602C9
S21400B9D05F001C02D0012A02A6003001FD00A6006E
S21400B9E06A0317004600F002E00326002300F50372
S21400B9F02C00E600E9032C005E00A8034E00E600DB
S21400BA00E803E003CC0241010700D4002F00D10078
S21400BA100C0066015C02F1030200CC025700D40061
S21400BA202F00D1000C000800B303D1000C009C03CB
S21400BA3001000600CC022700C802D40043009C0187
S21400BA401B00DC00C40244000400C400F900060029
S21400BA505C034400E603160086034B00C1000C009E
S21400BA607601E00344034400C4008400840104001B
S21400BA70C402E003130033007300C3008300820097
S21400BA80C200720032001200100030007000C000C9
S21400BA9080008700C70077003700170011003100CC
S21400BAA07100C10081008400C400740034001400DA
S21400BAB0180038007800C80088008400C5007500AB
S21400BAC03500150030015101A602A6004E00700296
S21400BAD0F801BC016603A003300104009C03580073
S21400BAE030010B00690114004E0070025C039000E8
S21400BAF01003D003A801C403C402A00170006E02A4
S21400BB001C0150039002D003B10142006002A00065
S21400BB10E5020000CC03600360000000B8013C01B1
S21400BB201C034A007C01A801E0038E00580138017E
S21400BB30E800B8010601F8017C021C03AA00BC005C
S21400BB40E8016E009801E003DC025001D402F30322
S21400BB504C00A003EE01E003EE00B8017C01D80320
S21400BB604400CC0013004800D8033C01A801EE00B6
S21400BB70E00315030C00CB0315030C009303EE0043
S21400BB80B8017C01D8038400CC02A0038800E0033F
S21400BB904E005C0122029C031300EE01A201F30397
S21400BBA00E01B801AE00E003AE004E007002380091
S21400BBB0AE00E003BC018800E401E801D80078018B
S21400BBC07C01A800FC01F801440040004C01F40090
S21400BBD074010000BC018800E401E801D800780187
S21400BBE07C01A800FC01F801FC005C013401CC01DA
S21400BBF074017400BF03C302BE03C4025501C5002E
S21400BC00BC01CC000000D3001800D6000902E503F2
S21400BC10F501E4037403E8026400D4028503E90234
S21400BC208803E0026C03D002DE01C001AF01B00160
S21400BC3000000000330373032F03740332037503FD
S21400BC4031037603AB03F4009903F9008D03F60283
S21400BC5082029401530371000A008402F1009F02DD
S21400BC601A0290011F0280014B0270013702600128
S21400BC704200D50000022300FC012400FF0125003D
S21400BC80FE01260004003300210036008E03F50274
S21400BC905300310277004E0207003400B00049001E
S21400BCA0820140007F013000CE012000B10110006B
S21400BCB07103A0026803A1027F03A2027C03A30211
S21400BCC02800C102B103F302B803F802E203A70199
S21400BCD09D01A800AE01A901EE02AA01AE02AB01C9
S21400BCE0BB02AC01B602AD01D802AE01D902AF016B
S21400BCF0A0037200100251000F02520011025300FE
S21400BD0018025401240255012B0256011203570152
S21400BD1013035801C2015901B3025A01B0025B0174
S21400BD20BC025C01B7025D01D6025E01DA025F0169
S21400BD30ED0308008C036300B803E6024B006602BE
S21400BD40A6004600A8033001FD0079011400410258
S21400BD5002000803F5032C008C033300450208009C
S21400BD60E9005400BB03E602E7038402EE02BB03CD
S21400BD70C5033C00B303E1000C00F5032C000803E8
S21400BD80E6025300B10308008C031F0088008402FB
S21400BD90E90054008B03B8030601F803A600E80385
S21400BDA0A303EE00B502080045020800060156008F
S21400BDB0700238009C031A011E01A600EE03EE0373
S21400BDC06E0076022B00DC03DC03EE03EE03760245
S21400BDD0DB0356003602DC03AA03AA036E002A0120
S21400BDE0AE00F002E9032C001C036A032700F503EB
S21400BDF008007B0286009C010A00AE007C03EE0071
S21400BE006602AB02E9032C00D801F803E602010043
S21400BE10220076021C031B00DC03DC037602EB0325
S21400BE2056007002EE003800AE00EA03EA038E0306
S21400BE308E03D8016E001C036A039300AA01D80182
S21400BE40AE007002AE0038003C02AE009C016A00F4
S21400BE5026027002AE00F002A60198016B03AE0047
S21400BE607002B60156037F004E00F002E9032C0074
S21400BE70B1030800F5032C00B1030800F503080021
S21400BE8045020200EE0093030C0217002003600236
S21400BE908C0260034C02A1013800040188021A00DB
S21400BEA01E00BA014E00E003A6003001DF00A60027
S21400BEB0560060022E001C036A026A03A00370028A
S21400BEC0EE00F002EE00CB03E50218000801840144
S21400BED0A1001800CC02A003C800C402E003DD02E3
S21400BEE01800E50218009C03E2021300C800A20036
S21400BEF086033C03E0034401B801FC008402080109
S21400BF007602600304018802760260038402E0037E
S21400BF108400AE00D801EE00D8012E0123002602D0
S21400BF2013008800D801EE00D801AE002601A00359
S21400BF308800E0036600D8018400AE00D801EE0059
S21400BF40D8018E012300660213008800D801EE0097
S21400BF50D801AE008601A00363037D003800AE0062
S21400BF60D801B003D801AE00EE00B003EE00E00347
S21400BF70AE00D8017003D801AE00EE007003BB031C
S21400BF806600D801B8017C031E01FC024600FC02D4
S21400BF902602E601E601E60106014E00BE01600348
S21400BFA08603BE016003A6003C03BE01F303E00364
S21400BFB06600D8014C00890215004C0039021400B6
S21400BFC08C00A003C8008C02A0034C00AB016E02DC
S21400BFD0A003A601A0038C02DF03E0030103180000
S21400BFE039011800C9032C001D0318001901180098
S21400BFF0350018000C0013008401210018006E00A4
S21400C000D801E0036E00D8011B00010318000C01E4
S21400C0106003AE003C03D8038C022F00D803FC025A
S21400C020AE00E003D803FC02AE00B1032C007D0096
S21400C03038008C0260032E02A0036601A0038C0267
S21400C040DF03E003190314000C01E50219008C015C
S21400C05023008C0285001800810214008C00170053
S21400C060C802390214008C01A003130308012B0038
S21400C0700103180039011800C9032C001D0318001D
S21400C0808E005801F8010601B000E00329021800EE
S21400C0907000F801A600E801BB0321011800450165
S21400C0A03800A800F801BC021C03AA00BC02A303C7
S21400C0B0F10018002800D8017000F8013C001C03AD
S21400C0C0AA00BC01EA00430301031800350018006B
S21400C0D04603C7004D0318000E03A300AE001C0362
S21400C0E0EA01EA013C02BE021E015E00EE01EE011C
S21400C0F0300110001300E6017E02F303490314002A
S21400C10043021C027D014200B50218004E006E027A
S21400C110E200EE00BE01AF000200EE003C03EE00BF
S21400C120D403D402C3039801BE013F004200EE00D0
S21400C1303C03EE00D403CB036E00B0036600E003BE
S21400C140F801A6006E00B00306019801E003600245
S21400C15016005801B8017C031E01BC011C03E20056
S21400C160E003E5021800AE00E601AE00EE01A00313
S21400C1706601E0034C0321011B0021031400190192
S21400C18018000C016003890214008C0039021500A7
S21400C1908C00890214008400E0030E01B801BC0183
S21400C1A01C03420056009C03A202E601E60126029A
S21400C1B0FE0113002602FE0113002602FE011300F4
S21400C1C026025A005E00E0039C03A0021E001A002E
S21400C1D016004603CB01E603FC020201D80130013B
S21400C1E015005A00CB00FA01BA00FA0113007A01D2
S21400C1F0BA00FA01BA00FA0113007A01BA00FA018D
S21400C200BA00FA0113007A01BA00FA01BA00FA017C
S21400C21013007A01BA00D8012E007A00EE03FC0261
S21400C2200201D8017A01BA013A0113003A02660205
S21400C230DB021E008E038E038E035E004600BC02E9
S21400C2405C02AA006B01EE025B010E0130011300D6
S21400C2501B00EE0366025E03EB03AE0058013001DE
S21400C260110006034700AE000E005A00D801BC01BC
S21400C27006019B029801A6000E003B00AE00EE01F0
S21400C280EE01EE01EE01AE002E00E600FC022602F4
S21400C2906602E6002E0166029303AE000E00600200
S21400C2A0E003EE00B8017C01D80304014C00130043
S21400C2B00801D803CE00E0034E017801760267003D
S21400C2C06801E00378017602E303B001AE00ED01F9
S21400C2D01C0015002E00B001AE0001021C004E002E
S21400C2E06802C3030E017802700368022B000E0179
S21400C2F0B8027003A8028C012B00CC03A0034803ED
S21400C300E0034C036003C803CC0360038801E50226
S21400C31002005A005C00D00033005A005C00D000D7
S21400C3200C021F00D00313009003FC023003F6003B
S21400C3305A005600E0034C036B012E00FA00AE00D4
S21400C3405E03F10137003E00CE00EE02F10036003B
S21400C3506E00EE01EE010E02EE005A000E01EE0136
S21400C360E6011300BA024E019C0342031700AE0317
S21400C3708E034E006E00DC025001CE034B002202FC
S21400C380CE01F3034E01EE0394030F03D403CA0356
S21400C390C3032D00180046033F00EE022F002101C4
S21400C3A01800C9020E008C01F1013700DD021800EA
S21400C3B0E5021800A6003C00AE00E6004E00DC02D7
S21400C3C01002CE0373002202CE01F3034E016E006C
S21400C3D0EE00BC01B6003C02E603EE006E00D4039D
S21400C3E0CA03540093034A00BC004E031300C8005F
S21400C3F00E00C302E1000C00F5032C001103080038
S21400C4001E00BE01D0025C02A200E6026300E1024A
S21400C41008008C032300F50020002B008803F5009D
S21400C4202000840306008C037902030088030502BB
S21400C43024008403D9020000E002E10208000C0395
S21400C4408D034C000E01D801AE008C006102030083
S21400C4508C035D031300E1000C00A6004E00700282
S21400C460B801FE012300FE0113004803A600600287
S21400C470560006014E0070021C03620149022300AA
S21400C480A2013001A100060369022300C6011600BE
S21400C4901C0210018E00CA00EA01BC013003E6004F
S21400C4A03A02300306015E005A001000EE01EE016B
S21400C4B0EE0190029C0302032F00F6021F003E02CC
S21400C4C042018C031D000B006600FE0223004C0395
S21400C4D0510202004C031B00F602DF03FA0251026F
S21400C4E00C004E0030018900BC0170014E001C0299
S21400C4F010030602BC0170014C031300A0024C039B
S21400C50005021400210118002801B8011C03AA0026
S21400C5100A01A8013801E0038C03110232005C0115
S21400C520D003D003E6033B01E6031C02D0008C03D5
S21400C5301F008A039C03B6015B008C0341020200C5
S21400C5401C011001D00090009000E5000A001603C0
S21400C5506D002700D601B6013B008C0373005C011A
S21400C560900090004300B601A3018C033B005C01E1
S21400C57090005000D5032200C800E5005000F503E7
S21400C5802C0084024402CC0005020B006E000C0353
S21400C59047000C023700080201000C0009002200C8
S21400C5A0B803FE0223009C007D01420045020800FD
S21400C5B00E017601B803EE03EE03BE00EE0366003E
S21400C5C0AE00E803B803A600AE00A80361020200AE
S21400C5D0B601A3008C0343005C0110015001D90092
S21400C5E00A001C036201160051020C00750340008D
S21400C5F04C02A10138002D020200B6012B008C036C
S21400C6008B03BE015303B6016B008C033B005C0139
S21400C610100110012B031C0362011600A100440048
S21400C620F300BE018C03A703BB039001DC030203E7
S21400C6305B019C00B601FF00B6019F008C0343001F
S21400C64090011C011001D000D003E5000A00390358
S21400C6500C00B0037C01E60245020800410202001D
S21400C6608C031B005001730339030C00AE0200005C
S21400C670B00343008C031B001001230339030C0096
S21400C6807003A8016303C201B601A3008C033B003C
S21400C6901C0110019000D0009001C302B8013C01BB
S21400C6A01C03AA00EA01EA01EA017C01A80145028E
S21400C6B00200B601170042018C0383001C01100122
S21400C6C09000100150011C0390021C036203370304
S21400C6D05C0010011002F9000A00AE005800B80114
S21400C6E01E01DC0210037E031B038D034C000502B3
S21400C6F0140061015E005C034803130044038401D8
S21400C700600205021C004E007002AE00280198036D
S21400C710A600B801A600A80144000C03130084007C
S21400C720C4008C034700FE013300FE012300C8004E
S21400C730080253000802A000140037008C032700EC
S21400C7408C00170004023801E000CC007F011C03B7
S21400C75098000C02FF000C00BB00F602A7000601C2
S21400C7601C0310021C03A60002036F000802FC0252
S21400C7701C00DC037602F3033801D0021C03980089
S21400C780220213004800F6022F000601E603B60058
S21400C7901B001C029002060076022F00F6022700FD
S21400C7A08C021300360268017300FE011B00FE01B6
S21400C7B08F030C017B039C00E2021F00D00353038F
S21400C7C0D00243033C03A00014008701E0008C0065
S21400C7D077018C032701CC0057010C001F000C02C8
S21400C7E03701B801FE014B00DC024E0010031003B7
S21400C7F0100090004E01B301FE0133004E00DC0233
S21400C80050011003B303FE012B004E00DC021001A2
S21400C810CB034E00DC02500110036B03F5032C0023
S21400C820EE004E007002EE00EE027B0078013C0344
S21400C830CC003D021C00CC004D021D00D6021B00A1
S21400C8405C0390003C024E01E0008D011C003C029F
S21400C8504D021C00D6021B009C0110027C008D01BC
S21400C8602C008D011C003C004D021C00D6021B0053
S21400C8701C0010023C0189011C007C004D021C00BB
S21400C880D6021B009C011002FC0089011C00BC00A3
S21400C8904D021C00D60213009000FC028D012C00F5
S21400C8A0AE0001021C000E00A1011C007C014D021E
S21400C8B01C00D6021B005C019000BC008D012C0001
S21400C8C0A1011C00BC024D021C00D6021B005C022B
S21400C8D09000BC024E01A1011C003C014D021C0050
S21400C8E0D6021B009C0010023C008D012C00A1010A
S21400C8F01C007C024D021C00D6021B005C031002CA
S21400C90089012C00A1011C00FC004D021C00D6026F
S21400C9101B009C021002FC004E01AE00ED011C0044
S21400C920A00138011E017E01BF000403B8019C026D
S21400C930E201130008037E0157007E017B006D02B2
S21400C9404C00BC018D012C007C02230049024C00E7
S21400C9507C014E016E00FD032A003801A002BE02D3
S21400C96060020E00FC029C03020149024C008C028D
S21400C97023004C0117004E00A2019700A201F70009
S21400C980A2013F01A2017F00A201DF00A201370140
S21400C990A2016F00A201D700A2011F016B007C005C
S21400C9A069024C0089012C0041024C007C018D017B
S21400C9B02C006D024C00BC00AB007C0169024C00F0
S21400C9C0BC018D012C0041024C003C034E015B0073
S21400C9D07C018D012C0041024C007C0369024C0056
S21400C9E0BC014E019C01B000FE02230010019C0118
S21400C9F042017802700368026E00F9011C004E00C6
S21400CA00DC008C03130050000E01B8019C02E2010A
S21400CA10E201E2013300AE001C001001AE009C02F1
S21400CA20E2012B00AE001C0150000E010C001F009E
S21400CA300C028700B8013C011C03EA022B00AE0082
S21400CA40DC001002AE00CC022B004E001C011002CF
S21400CA504E01F9011C00C4024E001C00CC021B0053
S21400CA6022023B00A000D4002300E0001C0250007D
S21400CA70E0004C001B009C011001E1011C00380185
S21400CA80EE00A000E0022003B801D803E003E000B7
S21400CA90AE0028019803A600B801A600A80144002D
S21400CAA04E00AE021C00900390030E017802B00305
S21400CAB06802840144038B027C02EE01EE014E0103
S21400CAC0E0030C0217002003B801FE015F01FE011F
S21400CAD00F01FE01770065032C009C03B000FC02EA
S21400CAE0A2005801F801A600E6030201EE008B0042
S21400CAF03001080059032C00860021011800DD02D1
S21400CB001800E502180066009C0302026600580141
S21400CB10B3003001020059032C00860021011800E2
S21400CB208B0330010A0059032C00AE003C03FE00C4
S21400CB30F8010601B00085024C0058019801560322
S21400CB407701BD021800BE01DF0042034701EE0078
S21400CB503C03EE00D403D402BB03A600D801BE01FA
S21400CB604700E202E700EE003C03EE00D403C303F6
S21400CB706E000203A70070009801AE004300EE00AE
S21400CB80AE0002036700AE00980170003D01180079
S21400CB909C0398001C032A029C03580051020200C2
S21400CBA09C030203E3038C0260034C02A1013800DD
S21400CBB09C0330010100580051020C004E0070002A
S21400CBC0F8014600E80188024402E0038C011F00D9
S21400CBD08801E0038401E003F8013C00060116002A
S21400CBE04E0070023800E0033001FE00DB03300127
S21400CBF0FF00EB034D0118004D0118004D01180011
S21400CC00CB0079011800B300F5032C004E00680332
S21400CC10B8035A00A803E6021F003001FE006901AF
S21400CC2014007B014C02A1013800F8017C020601C9
S21400CC30F8002D020200A10138001301F5032C00B4
S21400CC40E6026700E9032C0044020C03E7000C022E
S21400CC50DF00ED0308008402FB00CC0333008100F4
S21400CC6000008C0217004B016E00E10208006E0007
S21400CC70C500220051020C00A0013901180048022C
S21400CC804502020004028402C5033C00E6022703B4
S21400CC90EE02D703040261020200F5032C000C0228
S21400CCA057000C03D70008028402E602090023009E
S21400CCB0F10212004502080084026B038402690236
S21400CCC04400E0020502240046001C021002660230
S21400CCD0FB030C028D034D00A3020C01C7004801A4
S21400CCE0B3008C02DF0348010600B00029011400DF
S21400CCF01C006201A300EA03DC03E3034C039D016E
S21400CD002E00E603E6031C029002160363018C0263
S21400CD101F0044015B030C019F014303A2011400A2
S21400CD201701D40227004C0117007E01D403D40358
S21400CD308E00AA01EE003C02DC00CA03BC01AE0075
S21400CD40EE005C031E01A0025A039F000E00AE0018
S21400CD506E0063004C03910236008C021B000C012F
S21400CD60A701FA0251020200BE024402F000DB03F1
S21400CD7042037703A601FA03E30326009B005C0048
S21400CD80EA038E00B000A0029C008A038A038A038E
S21400CD90860006001C03D6022B008A017B038A004D
S21400CDA00600AE00FC02AE0026011C005E032F004B
S21400CDB0A601EE038A03DB03A6006E0019014000FD
S21400CDC054032D02020093029C00A200A202A200BD
S21400CDD0CB02840248028C02D700350114004401BD
S21400CDE02E005C03220202019C00D801460070025D
S21400CDF0B801AA00A600A801A600AA00D8016A00E9
S21400CE0008015A030F0304016A00F302FA0213032F
S21400CE10EE00DC02D001EE003E03B3020C01A702D6
S21400CE202E001B032E007A00580146003E005E00CE
S21400CE30D80106025E0213009E020E00D801DC0234
S21400CE40DC038E0313002E016202F3035403CB03AC
S21400CE509801AE0058019801FE021B006601CE0341
S21400CE60AE005C034A03BF00EE00AE005C030E019A
S21400CE70E6016B003A025B00C60026022202DE00D4
S21400CE806E00FA0260034E001E00E003C600C303F5
S21400CE906E00630342034F036602EA03E303850260
S21400CEA01E002E007A00580146003E00FA02FB00E3
S21400CEB0D80146025E0213009E02D8015E00AE0054
S21400CEC06E002E032B00D801EE036602D8015C0329
S21400CED04E00130022028E01F3032E01EE03D4034C
S21400CEE0D402D303AE009801E90036009C037D010E
S21400CEF042004C034B00BE024C033B0069030C008F
S21400CF00010040007B014800F90018007903140076
S21400CF1035001800A10018000C013300CC021F00D9
S21400CF20C4001300C8004501380009030E005E0067
S21400CF304C0360032D00180084013B000103180019
S21400CF407500180035001800A1001800FD020E003C
S21400CF500800450156004C038B0069030C005D0178
S21400CF60340045013800190140008B030E005C03B5
S21400CF7062015D013400C3030800D1031400890375
S21400CF805400AD035C00450138000C007B02E00352
S21400CF904C03330069030C00610034001B03D1030B
S21400CFA0140039035400AD035C00450138007B02D1
S21400CFB0D1031400390354008C0165035D00390168
S21400CFC018007901580029035C002101180031017E
S21400CFD018007901180051035C00C4024B03B80125
S21400CFE03C011C036A02A3004A0093007601760106
S21400CFF076017601B801BC01B600F6013C004C0390
S21400D00019035B006B00B8013C011C032A027C017B
S21400D010BB0376017601B801FC00B6007C00A801CF
S21400D02045020200A9011800F1001800F9021400D8
S21400D0308B01AE00A602AE00AE02E003A901180006
S21400D040F10018007D0038001B01A90118002D0111
S21400D05038000602EE0245020800D9032C00210122
S21400D0601A00F1001800CD021400B000D8017000BC
S21400D070F801E600E8013C0006011600D9032C0082
S21400D080CD021400210118009302F1001800D50209
S21400D09014006E00D8018E0058014E007002380051
S21400D0A0700078002800B8006800F8010E011C0126
S21400D0B0CA03CA03C6035C010A01AE00E8016E009B
S21400D0C09801E0038E0058017800A8004E00700218
S21400D0D038006800B0002800F8010E011C01E603C5
S21400D0E0EA03EA03060153035000E300E2011F00CF
S21400D0F0D000C300D001B3002D00180046032F0057
S21400D1000E01300141000E031D021A00AE00EE01B2
S21400D110EE019C03E2015F03E2013F03D0031C0320
S21400D12062021C03A2020A01B801FC00AA007C00ED
S21400D130A8011A007A017A017A014D01180031011E
S21400D14018007A00BA01D3034501380021011A00FD
S21400D15001031800D5011400FB00A9011400E30028
S21400D16048014800D501140023004801A901140015
S21400D1705D011C00CC0093004C011B000C015B0001
S21400D1804C002F008402850018002B0019031400A1
S21400D19039021400C402C9020E004C01E3037B03EB
S21400D1A008001B00080048012D00180066004D030B
S21400D1B01800AE004C0113006601C6021F000E03E5
S21400D1C01B0029023A00BC011A01A90238000B0113
S21400D1D01A0046031F00EE024B00A90114007A0154
S21400D1E0CC00E303BA01D501140039011800A101EF
S21400D1F0380006004E00BA003C00E003C4000C00F5
S21400D200F10239000C00DD023800290218007A000D
S21400D210BA01AB032502020048002D0018004603A1
S21400D2206F00EE02B3004D031800AE006E03170049
S21400D23048004C0013004E020600B9011800860094
S21400D240580106004E00890214004C007D0038008C
S21400D250E00376017601760176014E00B600F6010F
S21400D26084023C00EE00B8010E013C019C00020165
S21400D2707E00AE00A8016E007E0351020D00B503CD
S21400D280440005022400D9020000B8010E017C010A
S21400D2901E01AE00A801A9013200910144004C0015
S21400D2A079014300750340005801860021011800EB
S21400D2B0D801660039011800BA007C000601B100EA
S21400D2C04400930009014C00BE021F0091014C006F
S21400D2D0FE0243004B0009014C001B0091014C006C
S21400D2E0EE0245020800CD0038001B0109014C0083
S21400D2F0830391014C00EE02AB03BE025703090103
S21400D3004C001B0091014C00EE0267036B03C80043
S21400D310910144004C002700300110000603D101A3
S21400D3200A000D032200750044004C02A1013800DB
S21400D3302D02020075004400290220000103180097
S21400D34029024400AD000000A303910144004C00F4
S21400D3504700E9032200910144004C0051002600DA
S21400D360790142000103180029024400410202002C
S21400D3704800750044004C038F004C0085001900DF
S21400D3804C00B5031400290244003500180046037B
S21400D3902700EE024502080053030E014E004C0023
S21400D3A01700BE025C035000010040000600290280
S21400D3B04400F602870373031A00EE021F004603BA
S21400D3C04300C400D5011400CC00C3037A01B303A4
S21400D3D0BA003C00E003B8030E01F803CE03BE001B
S21400D3E0CE03CE03760213005600E803AE00A80371
S21400D3F0AE00E0032E007A00580146003E005E00B4
S21400D400D8011C03D403760136025403E303EE006E
S21400D410EE026B01D8016E00EE024B012603870078
S21400D420D8016E002603DF03AE00D8010E032300EA
S21400D430D801AE002B00D801AE00D8016E009E01C8
S21400D4405E035B008E021E0126033B00D801FC0231
S21400D450D8016E00A6016E0026034B006601CE03BF
S21400D460BE001E01D403D402C3034E00AE009801D2
S21400D470EE002E017602760276020000BD0036002F
S21400D480C402FA0217004E00A0025C03F6022B004C
S21400D4908602F6021F008602E003F6011F004E0019
S21400D4A033004A006A025600C802D403D403E003DD
S21400D4B01C004E00040004020403C40260026E0254
S21400D4C02E00D4033602D402EB031C019003900214
S21400D4D0900210039002BC01AE001C0084014403BD
S21400D4E0190224004C03290003008C012F000C03B2
S21400D4F06003D90200004E00700260026E0228022D
S21400D500F801BC0130015101A6023C00E8016000B0
S21400D5100000B8017C031E011A006002AE000E0176
S21400D520FC00FA00A60006015A00BC011A015A00C7
S21400D5301A027E01F303DC029000FA011A011300BE
S21400D540FA01FA01FA015A017E02DB035E00BA0014
S21400D550FA01FA01FA01BC02060146003C02FA0191
S21400D5601A01FA011A02FA011A02FC021E01E90364
S21400D5702C005600E6021F003001FD00A600DA006F
S21400D5801A017C00BE021E022F003E021F003E0251
S21400D5901300A601FC00A6001C03A201A2010603BC
S21400D5A0790142003001E0000603A003D3033D02E8
S21400D5B040008600C60070023800EE0026027002A8
S21400D5C0380023003C03AE03FE00BE01E303060161
S21400D5D01600BA001A011C037C007E025F000200DF
S21400D5E09C037E023F0002001B00D40322007E0242
S21400D5F0EB03810144004C03A003A0024603AF00E6
S21400D6008E000E016E01AE016E037F005E031B00EE
S21400D6107E015B0056031B0076013B006E005C0338
S21400D620E2026003EE02A0035C017D0142003001CD
S21400D630FE00700278030E01B803460070023C003C
S21400D640AE00D302B0005801F801EE003D024000E3
S21400D6506E009801AE00A0009C03E0009C034B0007
S21400D660EE00DC03A000DC03E000BE00EE03FC02DC
S21400D670EE007E02B303EE005801CE007C00FE00F2
S21400D6809801EE002300D4022700DC033E02E303E9
S21400D690700258013800B200F002A0009801FE02A5
S21400D6A05300DC02DC033E02F3032602700238005D
S21400D6B0EA00F0024E007002CE00E003440075005F
S21400D6C0440060024C035F00350018004603130058
S21400D6D04800A600EE0213004800E0035E000600C5
S21400D6E0F60213004E00E6025B006602E602AF0397
S21400D6F0FC0230010A00130046017E02F3035E00BE
S21400D70046007C034601E00358013001FE0070022B
S21400D710B8033C00A6000601BC01A80398016803F4
S21400D7204E0070029801E00304004E007002B8013B
S21400D730FE01B5034600FE01EB038C026003A00267
S21400D740B0000E011C0398005600C603AE001E0073
