S01700004850313243706C75735F54657374312E73726563DB
S1134000401500204D560000495600004956000056
S113401049560000495600004956000000000000BF
S113402000000000000000000000000049560000ED
S1134030495600000000000049560000495600009F
S11340404956000019540000295400003954000056
S11340504954000059540000695400007954000088
S11340608954000099540000A9540000B954000078
S1134070C9540000D9540000E9540000F954000068
S113408009550000495600004956000049560000F1
S113409049560000495600004956000049560000A0
S11340A0495600006D5100007D51000091510000FF
S11340B0A5510000B9510000C9510000DD510000B4
S11340C0F151000005520000155200002952000071
S11340D03D5200004956000049560000454E00007C
S11340E04956000049560000495600004956000050
S11340F04956000049560000495600004956000040
S1134100495600004956000049560000495600002F
S1134110495600004956000049560000495600001F
S1134120495600004956000049560000495600000F
S113413049560000495600004956000049560000FF
S113414049560000495600004956000049560000EF
S113415049560000354E00004956000049560000FB
S113416049560000495600004956000049560000CF
S1134170495600004956000049560000915300007A
S113418010B5054C237833B9044B13B10448AFF38D
S113419000800123237010BD64040020000000008F
S11341A0545900000C4B43B10C480D4910B5AFF302
S11341B000800C48036823B910BD0A48036833B96A
S11341C07047094B002BF7D0BDE810401847064B49
S11341D0002BF5D0184700BF000000005459000020
S11341E068040020545900000000000082B0EFF37E
S11341F01083B3FA83F35B09019372B6BFF35F8F45
S11342000022094B1A700199084B5A6A08489861B0
S113421042F005025A6229B10122034B1A70BFF31E
S11342205F8F62B602B070472C00002000040F407C
S1134230240000AA82B0EFF31083B3FA83F35B097E
S1134240019372B6BFF35F8F00220B4B1A70019972
S11342500A4A936C0A48906123F4407343F4007350
S113426043F00103936429B10122034B1A70BFF395
S11342705F8F62B602B070472C00002000080E4029
S1134280480000AA70B483B0EFF31083B3FA83F349
S11342905B09019372B6BFF35F8F00220E4B1A7055
S11342A0019D83000D4C54F82060012202FA01F1B3
S11342B03143203303F47F7343F02A43084A936560
S11342C044F820102DB10122034B1A70BFF35F8F05
S11342D062B603B070BC70472C00002020000E4072
S11342E000000E4070B483B0EFF31083B3FA83F38D
S11342F05B09019372B6BFF35F8F00220E4B1A70F5
S1134300019E83000D4D55F82020012404FA01F18B
S113431022EA0101203303F47F7343F02A43084A5D
S1134320936545F8201026B1034B1C70BFF35F8FD3
S113433062B603B070BC70472C00002020000E4011
S113434000000E4030B583B00446EFF31083B3FA97
S113435083F35B09019372B6BFF35F8F00220C4BAA
S11343601A70019D0B4B9B6A63B12DB10122084B5E
S11343701A70BFF35F8F62B621460220064B98473E
S113438003B030BD05210120034B9847EDE700BF82
S11343902C00002000000E408542000010B582B0C1
S11343A0014602200F4B9847EFF31083B3FA83F3CF
S11343B05B09019372B6BFF35F8F00220A4B1A7038
S11343C0019C0A4B9B6A43B12CB10122064B1A7023
S11343D0BFF35F8F62B602B010BD05210120014B0F
S11343E09847F1E7E54200002C00002000000E4051
S11343F030B583B00446EFF31083B3FA83F35B095B
S1134400019372B6BFF35F8F00220C4B1A70019DAB
S11344100B4BDB6A63B12DB10122084B1A70BFF359
S11344205F8F62B621460320064B984703B030BD28
S113443006210120034B9847EDE700BF2C00002024
S113444000000E408542000010B582B001460320F2
S11344500F4B9847EFF31083B3FA83F35B0901938F
S113446072B6BFF35F8F00220A4B1A70019C0A4B8D
S1134470DB6A43B12CB10122064B1A70BFF35F8F84
S113448062B602B010BD06210120014B9847F1E746
S1134490E54200002C00002000000E4008B5AE4BA1
S11344A0984200F0A08124D9AC4B984200F0C3811B
S11344B000F2E680A3F57C33984200F0A48140F238
S11344C0B080A74B984200F0AA8100F2CB80A3F5FC
S11344D04053984200F09B8103F50053984240F00A
S11344E0C080042101209F4B984704209E4B98478D
S11344F008BDA3F5A023984200F0228116D99B4B56
S1134500984200F060815BD9994B984200F0638136
S11345107AD8A3F50043984200F0598103F580430B
S1134520984270D11020934B984708BDA3F580336F
S1134530984200F0F98021D8A3F58033984200F026
S1134540E48012D98C4B984200F0E38003F5804359
S1134550984212D10320874B9847804B1A6C42F043
S11345605502864999651A6408BDB0F1402F03D1FC
S11345700020804B984708BD08BD08BD804B984279
S113458000F0D68012D97F4B984200F0D58003F515
S1134590F843984213D10820764B98476F4B1A6C16
S11345A042F00402754999651A6408BDA3F5705375
S11345B0984203D105206F4B984708BD08BD08BD3C
S11345C0A3F58033984200F0EF800BD96E4B9842EC
S11345D000F0F58003F58043984213D10D20654B1C
S11345E0984708BDA3F5804398420AD10A20614B3D
S11345F098475A4B1A6C42F00402604999651A6450
S113460008BD08BD08BD08BD604B984200F0E780B6
S113461003F58043984203D11320564B984708BDB5
S113462008BDA3F50433984200F0E1800FD9584B3C
S1134630984200F0E08003F58063984210D1022193
S11346400120484B98470120474B984708BDA3F5E4
S11346508043984203D11620464B984708BD08BDB5
S113466008BD08BD4B4B984200F0E18003F52043A0
S1134670984204D1092101203A4B984708BD08BD4E
S1134680454B984200F0E68012D9444B984200F022
S1134690EB802CD8A3F50063984200F0E08003F58A
S11346A08063984222D1022105202E4B984708BDF1
S11346B0A3F57843984200F0C3800CD9384B984254
S11346C000F0C38003F5806398420ED104210846AC
S11346D0244B984708BDA3F58063984204D1012177
S11346E00420204B984708BD08BD08BD08BD2D4BCC
S11346F0984200F0BE8003F58063984204D10521FE
S11347000846184B984708BD08BD0120194B984727
S113471008BD0220174B9847104B1A6C42F0550203
S1134720164999651A6408BD0420124B984708BDC0
S11347300620104B984708BD07200E4B984708BD2C
S113474009200C4B9847054B1A6C42F004020B49A4
S113475099651A6408BD00BF0080074000000E4040
S113476000500A4085420000F1430000000004406C
S1134770008006404543000000000140400000AABC
S113478000C0014000C401400080034000C0064056
S113479000000A4000600A4000000F40000C0F4077
S11347A0000C0E4000100F400B20344B9847344B44
S11347B01A6C42F00402334999651A6408BD0C204E
S11347C02E4B984708BD0E202C4B984708BD0F2050
S11347D02A4B984708BD1120284B984708BD122042
S11347E0264B984708BD1520244B984708BD172031
S11347F0224B984708BD01210846234B98470020C7
S1134800224B984708BD0220204B984708BD002141
S113481001201D4B984703201C4B984708BD0321DA
S11348200120194B98470520184B984708BD0620CE
S1134830164B984708BD00210420134B984708BD28
S113484002210420104B984708BD032104200E4B7D
S1134850984708BD002105200B4B984708BD01214E
S11348600520094B984708BD03210520064B9847AE
S113487008BD04210520044B984708BD45430000AA
S113488000000E40400000AA85420000F1430000F1
S113489008B5AF4B984200F0838124D9AD4B9842C0
S11348A000F0A28100F2DE80A3F57C33984200F090
S11348B0838140F29B80A84B984200F0898100F2EA
S11348C0B680A3F54053984200F07A8103F5005373
S11348D0984240F0AB8004210120A04B984704206B
S11348E09F4B9847AFE0A3F5A023984200F01381B3
S11348F016D99C4B984200F01A814DD99A4B984294
S113490000F01D8165D8A3F50043984200F013819F
S113491003F5804398425BD11020944B984792E072
S1134920A3F58033984200F0EA801AD8A3F58033C7
S1134930984200F0DC800BD98D4B984200F0DB806C
S113494003F5804398420BD10320884B98477AE0C3
S1134950B0F1402F03D10020844B984773E008BD89
S113496008BD844B984200F0CE800BD9824B98420C
S113497000F0CD8003F5F84398420CD108207B4B1E
S1134980984760E0A3F57053984203D10520774B14
S1134990984758E008BD08BDA3F58033984200F05D
S11349A0BE800BD9754B984200F0BD8003F580435F
S11349B098420CD10D206D4B984744E0A3F58043F9
S11349C0984203D10A20694B98473CE008BD08BDD2
S11349D008BD6B4B984200F0B68003F580439842C3
S11349E003D11320614B98472DE008BDA3F5043390
S11349F0984200F0D9800FD9624B984200F0D880D9
S1134A0003F58063984210D102210120534B98474B
S1134A100120534B984716E0A3F58043984203D1F5
S1134A201620524B98470EE008BD08BD08BD564BF2
S1134A30984200F0D58003F52043984211D1092112
S1134A400120464B9847434B9A6A40F60C731A422E
S1134A5006D1404B1A6C22F07F024C4999651A64C6
S1134A6008BD08BD4A4B984200F0CD8012D9494B8D
S1134A70984200F0D2802CD8A3F50063984200F04D
S1134A80C78003F58063984222D102210520334B6D
S1134A909847D8E7A3F57843984200F0AA800CD948
S1134AA03D4B984200F0AA8003F5806398420ED1F2
S1134AB004210846294B9847C5E7A3F5806398422B
S1134AC004D101210420254B9847BCE708BD08BD4B
S1134AD008BD324B984200F0A58003F580639842EC
S1134AE004D1052108461D4B9847ACE708BD0120B9
S1134AF01E4B9847A7E702201C4B9847A3E70420C6
S1134B001A4B98479FE70620184B98479BE70720C6
S1134B10164B984797E70920144B984793E70B20C7
S1134B20124B98478FE70C20104B98478BE70E20C9
S1134B300E4B984787E70F200C4B984783E71120CB
S1134B400A4B98477FE71220084B98477BE700BF42
S1134B500080074000000E4000500A40E54200007B
S1134B604944000000000440008006409D430000CA
S1134B700000014000C0014000C401400080034027
S1134B8000C0064000000A4000600A40400000AA3D
S1134B9000000F40000C0F40000C0E4000100F40AE
S1134BA01520234B98474EE71720214B98474AE797
S1134BB00020204B984746E702201E4B984742E7C7
S1134BC0002101201C4B984703201A4B98473AE7D1
S1134BD003210120184B98470520164B984732E7CC
S1134BE00620144B98472EE700210420124B9847C7
S1134BF029E702210420104B984724E703210420CD
S1134C000D4B98471FE7002105200B4B98471AE7E7
S1134C1001210520084B984715E703210520064B81
S1134C20984710E704210520034B98470BE700BF82
S1134C309D43000049440000E5420000F0B482B006
S1134C40069C054620B1451E05F0070545F0800584
S1134C5021B1013901F0070141F0800122B1013A8B
S1134C6002F0070242F0800223B1013B03F0070384
S1134C7043F0800324B1013C04F0070444F08004B1
S1134C80EFF31080B0FA80F04009019072B6BFF3E0
S1134C905F8F00260E480670019E0E480E4F8765F2
S1134CA045600E4D8565C1600D49816502610D4AFF
S1134CB0826543610C4B836584612EB10122044BF0
S1134CC01A70BFF35F8F62B602B0F0BC704700BFCA
S1134CD02C00002000000E40040000AA0C0000AAD2
S1134CE0100000AA140000AA180000AA82B0EFF372
S1134CF01083B3FA83F35B09019372B6BFF35F8F3A
S1134D000022084B1A70019A074B4FF02A4199650B
S1134D1018602AB10122034B1A70BFF35F8F62B689
S1134D2002B070472C00002000000E4030B585B062
S1134D30224C2046224B98470123A3602246D36885
S1134D4013F0010FFBD002230093002211461046FA
S1134D501C4CA0471C481D4B98471D4B98471D4AA7
S1134D60936C13F0010FFBD0012211461A481B4B20
S1134D70984705201A4B98471A4A012112481A4BA2
S1134D809847114D194C2846A04710F0010FFAD04E
S1134D90EFF31083B3FA83F35B09039372B6BFF3A3
S1134DA05F8F0022124B1A70039B2BB10122104B10
S1134DB01A70BFF35F8F62B605B030BD00040A40BD
S1134DC09D4400003D4C000000000F40C94E00000F
S1134DD03542000000080E40001BB700655000007B
S1134DE0ED4C000080A90300554E0000014F000067
S1134DF02C00002000B589B001A8084B984701AAEF
S1134E00074906A8074B984706A8074B9847074841
S1134E10074B984709B05DF804FB00BF55550000E7
S1134E20000C0F406D5500002156000000100E408C
S1134E309D44000008B5024B1B6803B1984708BDA8
S1134E40C404002008B5024B1B68984708BD00BF86
S1134E50C80400202DE9F04383B0C36923F0030E96
S1134E60EFF31083B3FA83F35B09019372B6BFF3D4
S1134E705F8F0025114B1D70019E114CD4F80880E2
S1134E802768D4F8049062600523236001F00301CD
S1134E9041F00C0141EA0E010A4B98472560C4F821
S1134EA00490C4F8088027602EB10122034B1A70C5
S1134EB0BFF35F8F62B603B0BDE8F0832C0000201F
S1134EC010E000E001000020C36943F08073024950
S1134ED0024A9161C36170471C0000AA00000F40A0
S1134EE0C36931B143F480330349044A9161C36116
S1134EF0704723F48033F7E71C0000AA00000F403A
S1134F004069704710B4C36923F44C532C4C2D4AA8
S1134F109461012914D0022927D003292ED0042911
S1134F2035D005293CD0062941D007291BD143F4AB
S1134F308073C361244A136943F00403136105E0D9
S1134F40C361214A136923F0040313611F4A53699F
S1134F5013F4806FFBD030BF00BF01221C4B1A70CA
S1134F60BFF35F8F62B610BC704743F48053C361D4
S1134F70154A136923F004031361E7E743F400536C
S1134F80C361114A136923F004031361DEE743F498
S1134F904053C3610C4A136923F004031361D5E73A
S1134FA0C361094A136943F004031361CEE743F470
S1134FB00073C361044A136943F004031361C5E732
S1134FC01C0000AA00000F4000ED00E000040F40A8
S1134FD02C000020054B1A6822F04002002814BF60
S1134FE0402300231343014A1360704700000A4022
S1134FF0024B986800F00100704700BF00000A40AF
S113500010B5024CA0470028FCD010BDF14F0000A1
S113501038B505460C46104B1B6898470F4B5B6828
S1135020002C12DB240224F07F4424F0FF0445F01A
S113503025452C43094B5C609B6803F00C03084A2C
S11350401360054B1B68984738BD23F03F0444F0B8
S113505025442C43EEE700BF3000002000000A4046
S11350608004002008B500292DD11D4B984214D985
S11350701C4B984208D801201B4B98474FF0FF3136
S113508011201A4B984708BD0120174B98474FF041
S1135090FF311020154B984708BD12B1144B9842AC
S11350A008D90020104B98474FF0FF3111200F4BC7
S11350B0984708BD01200C4B98474FF0FF31112051
S11350C00A4B984708BD0B4B98428CBF0120002027
S11350D0054B98474FF0FF311120044B984708BD0A
S11350E080A8120100512502D54F00001150000084
S11350F0001BB70000127A002DE9F04F83B0019134
S1135100470207F1804707F56127D7F8D0A0154B70
S11351101B68FBB10646144D0024A9464FF0010B51
S1135120DFF8408005E001340835D8F80030A342A8
S113513010D959F83430B6EB531FF4D103F01F03E0
S11351400BFA03F313EA0A0FEDD06B68002BEAD0D5
S11351509847E8E7019B0AEA0303C7F8D83003B08D
S1135160BDE8F08FB40400208404002008B5FF21BA
S11351700020014B984708BDF950000008B54FF4D2
S11351807F410020014B984708BD00BFF950000043
S113519008B54FF47F010020014B984708BD00BFBC
S11351A0F950000008B54FF07F410020014B9847AB
S11351B008BD00BFF950000008B5FF210120014BD4
S11351C0984708BDF950000008B54FF47F4101200D
S11351D0014B984708BD00BFF950000008B54FF4D3
S11351E07F010120014B984708BD00BFF950000022
S11351F008B54FF07F410120014B984708BD00BF1F
S1135200F950000008B5FF210220014B984708BD62
S1135210F950000008B54FF47F410220014B984734
S113522008BD00BFF950000008B54FF47F0102200B
S1135230014B984708BD00BFF950000008B54FF076
S11352407F410220014B984708BD00BFF950000080
S113525008B50A480A4B98470A4B5B6A13F0010FDA
S113526004D001210848094B984708BD084B9847CA
S1135270044A536A13F0010FFBD0F2E70000084020
S11352809D44000000040F4000000F40E14E000068
S1135290ED410000174B9B79FF2B29D082B0EFF32F
S11352A01083B3FA83F35B09019372B6BFF35F8F84
S11352B00022114B1A7001990E4A937901339371AC
S11352C029B101220C4B1A70BFF35F8F62B60B4BEE
S11352D05A6822F004025A6002221A604FF4807263
S11352E01A601A46D36813F0100FFBD002B070474F
S11352F0FEE700BFBC0400202C0000200000084092
S1135300074B5B6823F47C1300F01F020028B8BF2E
S113531042F0200243EA0243014A5360704700BF4F
S11353200000084010B5184955230B60037A1B068A
S113533003F0F853C279120402F4F8121343027909
S113534013438279120202F4F85213434279520051
S113535002F00E0213438B6003781B0603F07C52A9
S113536044788378002B14BF00210221C3781B02E8
S113537003F44073134323430B43034A536090F9EC
S11353800900024B984710BD00000840015300007B
S113539008B50122034B1A61034B1B6803B19847FC
S11353A008BD00BF00000840B8040020102828BF32
S11353B00020800100F1804000F5222070470000A9
S11353C008B50D4B9847C269C36A12F0010F10D09B
S11353D013F0040F01D0042008BD13F0020F01D014
S11353E0032008BD03F00103002B14BF0220012099
S11353F008BD002008BD00BFAD53000010B5044631
S1135400034B9847034B53F8243003B1984710BD1E
S1135410C1530000DC04002008B50020014B98476C
S113542008BD00BFFD53000008B50120014B98479B
S113543008BD00BFFD53000008B50220014B98478A
S113544008BD00BFFD53000008B50320014B984779
S113545008BD00BFFD53000008B50420014B984768
S113546008BD00BFFD53000008B50520014B984757
S113547008BD00BFFD53000008B50620014B984746
S113548008BD00BFFD53000008B50720014B984735
S113549008BD00BFFD53000008B50820014B984724
S11354A008BD00BFFD53000008B50920014B984713
S11354B008BD00BFFD53000008B50A20014B984702
S11354C008BD00BFFD53000008B50B20014B9847F1
S11354D008BD00BFFD53000008B50C20014B9847E0
S11354E008BD00BFFD53000008B50D20014B9847CF
S11354F008BD00BFFD53000008B50E20014B9847BE
S113550008BD00BFFD53000008B50F20014B9847AC
S113551008BD00BFFD53000082B00D4B1B6813F49F
S1135520003F0CBFD12340F2DD230193019BDB0834
S11355300193019B5A1E0192002BFAD140F0AA421A
S1135540034B1A6040F02A40186002B0704700BF55
S1135550000C0F4000230360436083601022027339
S1135560437301228273C2730374704770B50C468F
S11355701646016042600846264B9847256815F098
S1135580080544D1236813F0010F2CD1236813F4C8
S1135590803F32D1336870681843B3681843337B53
S11355A01B0203F4F8531843737B9B0403F4F803BE
S11355B01843B37B002B0CBF2B4680231843F37B8B
S11355C0002B18BF02252843134DA847206840F438
S11355D08030A847236813F4803FFBD020460F4B4C
S11355E09847012070BD206820F001000A4B9847BD
S11355F0236813F0010FFBD1C8E7206820F4803042
S1135600054B9847236813F4803FFBD1C2E7002081
S113561070BD00BF9D440000195500009148000072
S113562010B50468206820F00100054B98472368F2
S113563013F0010FFBD12046024B984710BD00BF69
S11356401955000091480000FEE7000008B5174B0B
S1135650174A9A4210D0174B144A9A420CD2013B73
S11356609B1A23F0030304331344114951F8040B28
S113567042F8040B9A42F9D10F4B104A9A420AD2CB
S1135680013B9B1A23F0030304331344002142F823
S1135690041B9342FBD10A4A0A4B23F07F03936015
S11356A0094B9847094B9847FEE700BF00000020CC
S11356B054590000640400204005002064040020C4
S11356C000ED00E000400000BD570000D15600008E
S11356D02DE9F04184B02E4B98472E4B98472E4B22
S11356E0D91D002203F8012F8B42FBD101242B4B3F
S11356F0DC712B4B984728238DF8043000238DF858
S113570005308DF806408DF807308DF808300323F6
S11357108DF8093010238DF80A3002238DF80B30F0
S113572006238DF80C301E238DF80D3001A81D4B77
S113573098471D4B98471D4B4FF0FF325A61DA6171
S11357405A62DA621A4C00252F46144EDFF868803C
S113575004E001232370BFF35F8F62B672B6BFF318
S11357605F8F27703378002BF3D10C4B294601311E
S1135770C9B213F8012F002AF9D00029E9D072B672
S1135780BFF35F8F257040460A4B9847E6E700BF9A
S11357902D4D0000F54D0000BB040020BC0400208A
S11357A051520000255300009552000000000840AB
S11357B02C000020054F000000000F4070B50F4E74
S11357C00F4D761BB61018BF002405D0013455F8D0
S11357D0043B9847A642F9D10A4E0B4D761B00F0C4
S11357E0A7F8B61018BF002406D0013455F8043BBE
S11357F09847A642F9D170BD70BD00BF3C59000066
S11358003C590000445900003C590000024B13B1BC
S1135810024800F005B87047000000002D58000051
S1135820002301461A46184600F01EB838B50A4C43
S11358300A4D641BA4100AD004F18043013B05EB1C
S11358408305013C55F804399847002CF9D1BDE88B
S1135850384000F077B800BF545900005059000098
S1135860704700BF704700BF2DE9F8432C4D064632
S1135870286898460F469146FFF7F2FF294B1C68AB
S1135880D4F84831002B3ED05A681F2A1CDC02F1A0
S1135890010E76B103EB82010124C1F88890D3F89C
S11358A0880194402043022EC3F88801C1F808817E
S11358B023D00232C3F804E0286843F82270FFF7CB
S11358C0D1FF0020BDE8F883174B0BB34FF4C87029
S11358D0AFF300800346D8B1D4F848210260002118
S11358E041600A46C4F848014FF0010EC0F888111F
S11358F0C0F88C11002EDCD0CCE7D3F88C110C430B
S1135900C3F88C41D5E704F5A673C4F84831BBE766
S11359102868FFF7A7FF4FF0FF30BDE8F88300BF0A
S1135920600400202C590000000000003800002012
S1135930F8B500BFF8BC08BC9E4670470D5800007F
S1135940A5410000F8B500BFF8BC08BC9E467047EE
S1075950814100008D
S1135954074A084B9A61C1611946074A48691368A2
S113596403F4803310F0010001D1002BF6D070470A
S11359741C0000AA00000F4010E000E00100000039
S11359840150000000000000000000002403002077
S11359948C030020F4030020000000000000000039
S11359A400000000000000000000000000000000EF
S11359B400000000000000000000000000000000DF
S11359C400000000000000000000000000000000CF
S11359D400000000000000000000000000000000BF
S11359E400000000000000000000000000000000AF
S11359F4000000000000000000000000000000009F
S1135A04000000000000000000000000000000008E
S1135A14000000000000000000000000000000007E
S1135A24000000000000000000000000000000006E
S1135A3401000000000000000E33CDAB34126DE60B
S1135A44ECDE05000B000000000000000000000074
S1135A54000000000000000000000000000000003E
S1135A64000000000000000000000000000000002E
S1135A74000000000000000000000000000000001E
S1135A84000000000000000000000000000000000E
S1075DB41C050020A6
S903564D59
